:020000040000FA
:100000007020002081010000890100008B010000A8
:100010008D0100008F010000910100000000000030
:10002000000000000000000000000000930100003C
:1000300095010000000000005D0100009901000032
:100040009B0100009B0100009B0100009B01000040
:100050009B0100009B0100009B0100009B01000030
:100060009B0100009B0100009B0100009B01000020
:100070009B0100009B0100009B0100009B01000010
:100080009B0100009B0100009B0100009B01000000
:100090000000000000000000000000000000000060
:1000A0000000000000000000000000000000000050
:1000B0009B010000000000009B0100009B0100006C
:1000C00000F002F800F03AF80AA090E8000C824430
:1000D0008344AAF10107DA4501D100F02FF8AFF20D
:1000E000090EBAE80F0013F0010F18BFFB1A43F016
:1000F00001031847C0010000E0010000103A24BFCE
:1001000078C878C1FAD8520724BF30C830C144BF7C
:1001100004680C60704700000023002400250026BE
:10012000103A28BF78C1FBD8520728BF30C148BF5A
:100130000B6070471FB51FBD10B510BD00F043F830
:100140001146FFF7F7FF00F08DF800F061F803B4F7
:10015000FFF7F2FF03BC00F069F8000007480068F1
:10016000006820E9F00F05490968086004F10104FE
:1001700005F10105B0E8F00F704700000000002015
:100180000948804709480047FEE7FEE7FEE7FEE72B
:10019000FEE7FEE7FEE7FEE7FEE7FEE70448054967
:1001A000054A064B7047000045020000C1000000F0
:1001B0007010002070200020701C0020701C002097
:1001C000704770477047754600F02CF8AE46050042
:1001D0006946534620F00700854618B020B5FFF762
:1001E000DDFFBDE820404FF000064FF000074FF064
:1001F00000084FF0000B21F00701AC46ACE8C00945
:10020000ACE8C009ACE8C009ACE8C0098D4670474D
:1002100010B50446AFF300802046BDE81040FFF75C
:1002200096BF0000004870471010002001491820B8
:10023000ABBEFEE726000200704700BF411E081E4D
:10024000FCDC70470348044908600448044908601E
:10025000704700000000000008ED00E040787D01DC
:100260000C0000200A480B49086008460A4908604B
:1002700000BF002009490860C820FFF7DEFF012009
:1002800006490860C820FFF7D8FF00F009F8F0E73A
:1002900010100020080000200000002004000020B2
:1002A000FF2003490870C80601491E3908607047DD
:1002B00022ED00E0D4020000000000201000000049
:1002C000FC000000E402000010000020602000009C
:1002D0001801000000000000000000000000000005
:0402E00040787D01E4
:04000005000000C136
:00000001FF
