:020000040000FA
:10000000586300208D010000950100009701000059
:10001000990100009B0100009D010000000000000C
:100020000000000000000000000000009F01000030
:10003000A1010000000000005D0100004702000077
:10004000A7010000A7010000A7010000A701000010
:10005000A7010000A7010000A7010000A701000000
:10006000A7010000A7010000A7010000A7010000F0
:10007000A7010000A7010000A7010000A7010000E0
:10008000A7010000A7010000A7010000A7010000D0
:100090000000000000000000000000000000000060
:1000A0000000000000000000000000000000000050
:1000B000A701000000000000A7010000A701000048
:1000C00000F002F800F03AF80AA090E8000C824430
:1000D0008344AAF10107DA4501D100F02FF8AFF20D
:1000E000090EBAE80F0013F0010F18BFFB1A43F016
:1000F00001031847C0090000E0090000103A24BFBE
:1001000078C878C1FAD8520724BF30C830C144BF7C
:1001100004680C60704700000023002400250026BE
:10012000103A28BF78C1FBD8520728BF30C148BF5A
:100130000B6070471FB51FBD10B510BD00F049F82A
:100140001146FFF7F7FF00F093F800F067F803B4EB
:10015000FFF7F2FF03BC00F06FF80000EFF3098037
:1001600020B120E9F00F07490968086005480649F1
:100170000A6802601068B0E8F00F80F309884EF05A
:10018000040E70470000002004000020094880474A
:1001900009480047FEE7FEE7FEE7FEE7FEE7FEE769
:1001A000FEE7FEE7FEE7FEE704480549054A064B81
:1001B0007047000051020000C100000058530020A9
:1001C00058630020585F0020585F00207047704738
:1001D0007047754600F02CF8AE4605006946534658
:1001E00020F00700854618B020B5FFF7DDFFBDE819
:1001F00020404FF000064FF000074FF000084FF08E
:10020000000B21F00701AC46ACE8C009ACE8C0091E
:10021000ACE8C009ACE8C0098D46704710B504468B
:10022000AFF300802046BDE81040FFF790BF00000C
:1002300000487047F452002001491820ABBEFEE789
:1002400026000200704710B500F0C2FA10BD000091
:1002500003480449086004480449086070470000E6
:100260000000000008ED00E0001BB70024000020A3
:1002700008B500F011FA00F019F900F059F8094832
:100280001F23002208490090084800F079F9074828
:100290000749086000F060F90649086000F0EEF9CF
:1002A000002008BDF4110020B1090000B4010020B5
:1002B000080000200400002001238B4002689A43BC
:1002C0000260704700B50146087818B10878134AF3
:1002D000105C00BD088800F47F4030B10888C0F38E
:1002E00007200E4A105C0830F3E7086800F47F002E
:1002F00030B10868C0F30740084A105C1030E8E7E6
:10030000086800F07F4028B10868000E034A105CBE
:100310001830DEE700F004F8DBE70000B409000065
:100320002020704701238B4002681A430260704707
:1003300008B5124800234FF01132114900901148BE
:1003400000F01EF9104801234FF022320F490090AF
:100350000F4800F015F90F4800234FF033320E49D3
:1003600000900E4800F00CF90D4801234FF0443284
:100370000C4900900C4800F003F908BDF42200205D
:10038000D1080000F4110020F43200200909000017
:1003900034120020F44200204509000074120020AD
:1003A000F452002081090000B412002042684A6023
:1003B000426812680A604268116041608268521C9B
:1003C00082607047486002680A600268516001609C
:1003D0008268521C826070470146886870470146F7
:1003E00000208A6802B148687047406000600021C0
:1003F00081607047D1E900231A60D1E900325A6068
:100400008268521E82607047014600208A683AB1B5
:1004100048684268116042684A608A68521E8A6071
:10042000704700604060704730B502461148006870
:1004300050434FF47A71B0FBF1F0401E4FF0E021D1
:10044000486148170721002804DB4B071C0E0A4BA4
:100450001C5406E04B071D0E084B00F00F04241F30
:100460001D5500BF00204FF0E02188610720086182
:1004700030BD00002400002000E400E018ED00E0A2
:1004800070B5044600F036F8054621460648006877
:1004900000F0FAF90448006800F070F9284600F00E
:1004A0002FF800F015F970BD0000002010B50248CB
:1004B000FFF79BFF10BD0000A801002010B500F061
:1004C00019F804460A48006800F03AF9084800683C
:1004D000806A30B1064A1268D06A054A1268916A89
:1004E000884700F0F5F8204600F00AF810BD00003B
:1004F0000000002000BFEFF31081084672B670477D
:1005000000BF80F3108800BF7047000070B504463C
:10051000FFF7F0FF0546207D00F0040018B12046EB
:1005200000F0A8F906E0207D00F0080010B9204690
:1005300000F006F9A06A10B1D4E90A10884705480E
:100540000068A04201D100F0C3F82846FFF7D8FFA9
:1005500070BD00000000002070B50748FFF7B2FE34
:10056000044604EB4401054A02EB8100FFF737FF24
:100570000546A5F1180070BD0C00002028000020E1
:100580002DE9F04105460E4617469846069C4FF069
:100590008071201F04460160201F0446066014215C
:1005A000201F044601601221201F04460160032120
:1005B000201F044601600221201F04460160012122
:1005C000201F04460160201F044607601121201FE0
:1005D000044601601021201F044601600921201FEC
:1005E000044601600821201F044601600721201FE6
:1005F000044601600621201F044601600521201FDA
:10060000044601600421201F044601602C60002084
:100610006860C5F8088068610A2028620020686266
:10062000A862E86285F8300005F10C00FFF7F9FEDA
:1006300005F11800FFF7F5FE284600F06BF8BDE85D
:10064000F081000070B5FFF755FF054604480068CB
:1006500090F830402846FFF753FF204670BD000059
:100660000000002070B50446FFF744FF0546012056
:1006700084F830002846FFF743FF70BD002080F368
:10068000098800BFFF2003490870C80601491E39C8
:100690000860704722ED00E070B5FFF72BFF0546BC
:1006A000002009490870002407E004EB4401074AD0
:1006B00002EB8100FFF799FE641C202CF5DB284635
:1006C000FFF71EFF70BD0000100000202800002072
:1006D00070B5FFF70FFF05460B480078002803DDD3
:1006E0002846FFF70DFF70BDFFF736FF04460748A9
:1006F0000068844203D00648046000F061F8284690
:10070000FFF7FEFE00BFEEE7100000200000002013
:100710000400002010B50446A16801EB4101064A1F
:1007200002EB810004F11801FFF740FE0348A168C5
:10073000FFF7F8FD10BD0000280000200C0000208D
:1007400010B50446A16801EB41010A4A02EB8100A1
:1007500004F11801FFF74EFEA16801EB4101054AC3
:1007600002EB8100FFF738FE18B90348A168FFF7D4
:10077000A3FD10BD280000200C00002010B5044689
:10078000A16801EB41010A4A02EB810004F1180162
:10079000FFF730FEA16801EB4101054A02EB810041
:1007A000FFF71AFE18B90348A168FFF785FD10BDD1
:1007B000280000200C0000208162C2627047000007
:1007C0004FF08050014908607047000004ED00E0E0
:1007D00070B5FFF78FFE0646234844680CE0A4F18D
:1007E0000C056868401E686028B9284600F05CF86F
:1007F0002846FFF78FFF64681B488442EFD11B48EF
:100800000068006A401E19490968086228BB174938
:100810000968896801EB4101154A02EB8100FFF785
:10082000DBFDD0B111490968896801EB4101104A2B
:1008300002EB8100FFF7E8FD0C490968896801EBCC
:1008400041010B4A02EB8100084909681831FFF7A2
:10085000B9FD0A200549096808623046FFF750FED5
:10086000FFF736FF70BD0000A80100200000002047
:100870002800002010B5044604F10C010148FFF7E0
:10088000B9FD10BDA801002070B504460D46656095
:1008900004F10C010348FFF795FD606940F0040086
:1008A000606170BDA801002010B5044604F10C0180
:1008B0000348FFF79FFD606920F00400606110BDF0
:1008C000A80100200021014A116070471400002097
:1008D0000A20FFF7A9FD0022084909480068FFF730
:1008E0006BFF0AE0012007490860FFF7C9FD0020FF
:1008F000044908600120FFF7C3FDF3E7C5080000C5
:10090000000000201400002000240FE0012008490E
:100910000860FFF7B5FD0020054908600120FFF7DA
:10092000AFFD1CB90348FFF7F1FD0124EEE700001D
:1009300018000020F41100200021014A11607047C6
:100940001C00002015E000220A490B480068FFF750
:1009500033FFFFF777FE08B1FFF7B0FD012007492D
:100960000860FFF78DFD0020044908600120FFF7B3
:1009700087FDE8E739090000000000201C00002086
:1009800000240FE0012008490860FFF779FD0020EE
:10099000054908600120FFF773FD1CB90348FFF704
:1009A00061FE0124EEE70000200000207412002008
:1009B00000BFFEE7FF00010002000100030001008C
:1009C0000200010004000100020001000300010018
:1009D0000200010005000100020001000300010007
:1009E00002000100040001000200010003000100F8
:1009F00002000100060001000200010003000100E6
:100A000002000100040001000200010003000100D7
:100A100002000100050001000200010003000100C6
:100A200002000100040001000200010003000100B7
:100A300002000100070001000200010003000100A4
:100A40000200010004000100020001000300010097
:100A50000200010005000100020001000300010086
:100A60000200010004000100020001000300010077
:100A70000200010006000100020001000300010065
:100A80000200010004000100020001000300010057
:100A90000200010005000100020001000300010046
:100AA0000200010004000100020001000300010037
:100AB00002000100D40A000000000020280000000D
:100AC000FC000000FC0A0000280000203063000049
:100AD00018010000000000000000000000000000FD
:100AE0000000000000000000000000000000000006
:0C0AF0000000000000000000001BB70028
:04000005000000C136
:00000001FF
