:020000040000FA
:10000000A04000208D010000950100009701000034
:10001000990100009B0100009D010000000000000C
:100020000000000000000000000000009F01000030
:10003000A1010000000000005D0100004702000077
:10004000A7010000A7010000A7010000A701000010
:10005000A7010000A7010000A7010000A701000000
:10006000A7010000A7010000A7010000A7010000F0
:10007000A7010000A7010000A7010000A7010000E0
:10008000A7010000A7010000A7010000A7010000D0
:100090000000000000000000000000000000000060
:1000A0000000000000000000000000000000000050
:1000B000A701000000000000A7010000A701000048
:1000C00000F002F800F03AF80AA090E8000C824430
:1000D0008344AAF10107DA4501D100F02FF8AFF20D
:1000E000090EBAE80F0013F0010F18BFFB1A43F016
:1000F000010318475405000074050000103A24BF9E
:1001000078C878C1FAD8520724BF30C830C144BF7C
:1001100004680C60704700000023002400250026BE
:10012000103A28BF78C1FBD8520728BF30C148BF5A
:100130000B6070471FB51FBD10B510BD00F049F82A
:100140001146FFF7F7FF00F093F800F067F803B4EB
:10015000FFF7F2FF03BC00F06FF80000EFF3098037
:1001600020B120E9F00F07490968086005480649F1
:100170000A6802601068B0E8F00F80F309884EF05A
:10018000040E70470000002004000020094880474A
:1001900009480047FEE7FEE7FEE7FEE7FEE7FEE769
:1001A000FEE7FEE7FEE7FEE704480549054A064B81
:1001B0007047000051020000C1000000A030002084
:1001C000A0400020A03C0020A03C002070477047C9
:1001D0007047754600F02CF8AE4605006946534658
:1001E00020F00700854618B020B5FFF7DDFFBDE819
:1001F00020404FF000064FF000074FF000084FF08E
:10020000000B21F00701AC46ACE8C009ACE8C0091E
:10021000ACE8C009ACE8C0098D46704710B504468B
:10022000AFF300802046BDE81040FFF790BF00000C
:10023000004870473C30002001491820ABBEFEE763
:1002400026000200704710B500F09CF910BD0000B8
:1002500003480449086004480449086070470000E6
:100260000000000008ED00E0001BB700380000208F
:1002700010B5124B4FF011321149124800F07DF8C1
:10028000114B4FF022321149114800F0BAF80D48D5
:10029000104908600E484860084600680E4908602A
:1002A0000E4B00220E490F4800F067F80D480E492A
:1002B000086000F0EBF8002010BD00003C100020AA
:1002C000D1050000180000203C200020F9050000A6
:1002D000200000200C000020040000203C30002002
:1002E00045060000280000200800002030B5024626
:1002F0001148006850434FF47A71B0FBF1F0401E92
:100300004FF0E021486148170721002804DB4B0724
:100310001C0E0A4B1C5406E04B071D0E084B00F048
:100320000F04241F1D5500BF00204FF0E0218861FD
:100330000720086130BD00003800002000E400E024
:1003400018ED00E070B5044600F00CF805460448CE
:1003500000684460284600F00BF800F0A5F870BD76
:100360000000002000BFEFF31081084672B670470E
:1003700000BF80F3108800BF704730B54FF0807524
:100380001C1F234625601C1F2346216014251C1FAB
:100390002346256012251C1F2346256003251C1FAC
:1003A0002346256002251C1F2346256001251C1FAE
:1003B000234625601C1F2346226011251C1F23464F
:1003C000256010251C1F2346256009251C1F234678
:1003D000256008251C1F2346256007251C1F234672
:1003E000256006251C1F2346256005251C1F234666
:1003F000256004251C1F23462560036000244460FB
:1004000030BD30B54FF080751C1F234625601C1F82
:100410002346216016251C1F2346256014251C1F1A
:100420002346256005251C1F2346256004251C1F27
:100430002346256003251C1F234625601C1F2346D9
:10044000226013251C1F2346256012251C1F2346EE
:1004500025600B251C1F234625600A251C1F2346EB
:10046000256009251C1F2346256008251C1F2346DF
:10047000256007251C1F2346256006251C1F2346D3
:10048000256003600024446030BD0000002080F33C
:10049000098800BFFF2003490870C80601491E39BA
:1004A0000860704722ED00E010B5FFF75BFF0446DF
:1004B0002C4800682C490968884214D12B480068F0
:1004C000406820B9294800682949086043E0274866
:1004D000406820B925484068254908603BE020462F
:1004E000FFF746FF10BD214800681E490968884291
:1004F00015D11E484068406820B91C4840681C4916
:10050000086028E017480068406820B11648006875
:10051000174908601FE02046FFF72AFFE2E713486B
:10052000406810490968884215D110480068406841
:1005300020B90E4800680E4908600CE009480068C0
:10054000406820B1084800680949086003E0204677
:10055000FFF70EFFC6E72046FFF70AFF00F00AF894
:1005600000BFBFE700000020080000200C000020B2
:10057000040000204FF080500149086070470000DF
:1005800004ED00E010B5FFF7EDFE044600200EE09C
:100590000D4951F82010496841B10B4951F820101C
:1005A0004968491E084A52F820205160401C022820
:1005B000EEDB06480068401C044908602046FFF74F
:1005C000D7FEFFF771FF10BD0C00002014000020C3
:1005D0000A20FFF78BFE0BE00120064908600A2085
:1005E000FFF7B0FE0020034908600A20FFF7AAFECB
:1005F000F2E70000300000201EE0FFF7B3FE0446E3
:100600000E480568002000E0401C4FF6FF7188424C
:10061000FADB681C094908602046FFF7A9FE0120A3
:10062000074908600A20FFF78DFE00200449086092
:100630000A20FFF787FE00BFDFE70000140000205C
:100640003400002000BFFEE7680600000000002024
:100650003C000000FC000000A40600003C0000205C
:1006600064400000180100000000000000000000CD
:10067000000000000000000000000000000000007A
:10068000000000000000000000000000000000006A
:10069000000000000000000000000000000000005A
:0406A000001BB70084
:04000005000000C136
:00000001FF
