:020000040000FA
:10000000F86300208D0100009501000097010000B9
:10001000990100009B0100009D010000000000000C
:100020000000000000000000000000009F01000030
:10003000A1010000000000005D0100004702000077
:10004000A7010000A7010000A7010000A701000010
:10005000A7010000A7010000A7010000A701000000
:10006000A7010000A7010000A7010000A7010000F0
:10007000A7010000A7010000A7010000A7010000E0
:10008000A7010000A7010000A7010000A7010000D0
:100090000000000000000000000000000000000060
:1000A0000000000000000000000000000000000050
:1000B000A701000000000000A7010000A701000048
:1000C00000F002F800F03AF80AA090E8000C824430
:1000D0008344AAF10107DA4501D100F02FF8AFF20D
:1000E000090EBAE80F0013F0010F18BFFB1A43F016
:1000F000010318472809000048090000103A24BFEE
:1001000078C878C1FAD8520724BF30C830C144BF7C
:1001100004680C60704700000023002400250026BE
:10012000103A28BF78C1FBD8520728BF30C148BF5A
:100130000B6070471FB51FBD10B510BD00F049F82A
:100140001146FFF7F7FF00F093F800F067F803B4EB
:10015000FFF7F2FF03BC00F06FF80000EFF3098037
:1001600020B120E9F00F07490968086005480649F1
:100170000A6802601068B0E8F00F80F309884EF05A
:10018000040E70470000002004000020094880474A
:1001900009480047FEE7FEE7FEE7FEE7FEE7FEE769
:1001A000FEE7FEE7FEE7FEE704480549054A064B81
:1001B0007047000051020000C1000000F853002009
:1001C000F8630020F85F0020F85F00207047704758
:1001D0007047754600F02CF8AE4605006946534658
:1001E00020F00700854618B020B5FFF7DDFFBDE819
:1001F00020404FF000064FF000074FF000084FF08E
:10020000000B21F00701AC46ACE8C009ACE8C0091E
:10021000ACE8C009ACE8C0098D46704710B504468B
:10022000AFF300802046BDE81040FFF790BF00000C
:10023000004870479453002001491820ABBEFEE7E8
:1002400026000200704710B500F05EFA10BD0000F5
:1002500003480449086004480449086070470000E6
:100260000000000008ED00E0001BB7003000002097
:1002700008B500F0CFF900F035F900F075F809483D
:100280001F23002208490090084800F053F907484E
:100290000749086000F03AF90649086000F0ACF937
:1002A000002008BD081200200D090000C001002038
:1002B000080000200400002001238B4002689A43BC
:1002C0000260704700B50146087818B10878134AF3
:1002D000105C00BD088800F47F4030B10888C0F38E
:1002E00007200E4A105C0830F3E7086800F47F002E
:1002F00030B10868C0F30740084A105C1030E8E7E6
:10030000086800F07F4028B10868000E034A105CBE
:100310001830DEE700F004F8DBE700001C090000FD
:100320002020704701238B4002681A430260704707
:100330002DE9F04104460D46164600F0DBF807466D
:10034000616B081D04F1180100F070F80020606373
:10035000A563E663606920F47F006061384600F0C1
:10036000CFF8BDE8F081000008B5124800234FF037
:10037000113211490090114800F0DCF810480123B7
:100380004FF022320F4900900F4800F0D3F80F4889
:1003900001234FF033320E4900900E4800F0CAF8A6
:1003A0000D4801234FF044320C4900900C4800F0F6
:1003B000C1F808BD282300202D08000008120020E5
:1003C00028330020AD0800005012002028430020F0
:1003D000CD0800009812002028530020ED080000EE
:1003E000E012002042684A60426812680A6042686F
:1003F000116041608268521C8260704748600268E8
:100400000A600268516001608268521C8260704715
:10041000014688687047014600208A6802B1486832
:10042000704740600060002181607047D1E900237F
:100430001A60D1E900325A608268521E82607047A9
:10044000014600208A683AB14868426811604268F3
:100450004A608A68521E8A60704700604060704738
:1004600030B502461148006850434FF47A71B0FB32
:10047000F1F0401E4FF0E0214861481707210028A5
:1004800004DB4B071C0E0A4B1C5406E04B071D0EE9
:10049000084B00F00F04241F1D5500BF00204FF033
:1004A000E02188610720086130BD00003000002095
:1004B00000E400E018ED00E070B5044600F01AF822
:1004C000054621460648006800F076F904480068B1
:1004D00000F0F4F8284600F013F800F0B7F870BD0B
:1004E0000000002010B50248FFF79BFF10BD000080
:1004F000B401002000BFEFF31081084672B67047C8
:1005000000BF80F3108800BF7047000070B5074837
:10051000FFF7D8FE044604EB4401054A02EB8100D4
:10052000FFF779FF0546A5F1180070BD0C0000200B
:10053000340000202DE9F04105460E461746984646
:10054000069C4FF08071201F04460160201F044666
:1005500006601421201F044601601221201F04465A
:1005600001600321201F044601600221201F044670
:1005700001600121201F04460160201F044607601E
:100580001121201F044601601021201F0446016034
:100590000921201F044601600821201F0446016034
:1005A0000721201F044601600621201F0446016028
:1005B0000521201F044601600421201F044601601C
:1005C0002C6000206860C5F8088068610A202862F5
:1005D00000206862A862E86285F8300005F10C002E
:1005E000FFF73BFF05F11800FFF737FF284600F043
:1005F0004FF8BDE8F0810000002080F3098800BFBB
:10060000FF2003490870C80601491E390860704779
:1006100022ED00E070B5FFF76DFF054600200949A7
:100620000870002407E004EB4401074A02EB810054
:10063000FFF7F7FE641C202CF5DB2846FFF760FF70
:1006400070BD0000100000203400002070B5FFF7DE
:1006500051FF05460B480078002803DD2846FFF7C8
:100660004FFF70BDFFF752FF044607480068844201
:1006700003D00648046000F03FF82846FFF740FF2B
:1006800000BFEEE710000020000000200400002062
:1006900010B50446A16801EB4101064A02EB810056
:1006A00004F11801FFF79EFE0348A168FFF73AFE28
:1006B00010BD0000340000200C00002010B50446DE
:1006C000A16801EB41010A4A02EB810004F1180123
:1006D000FFF7ACFEA16801EB4101054A02EB810086
:1006E000FFF796FE18B90348A168FFF7E5FD10BDB6
:1006F000340000200C0000204FF0805001490860B9
:100700007047000004ED00E070B5FFF7F3FE064609
:100710002648456813E0A5F10C046068401E60603F
:1007200060B9606B20B1012200212046FFF700FE76
:10073000204600F051F82046FFF7AAFF6D681B48DD
:100740008542E8D11A480068006A401E18490968C5
:10075000086228BB16490968896801EB4101154AFE
:1007600002EB8100FFF754FED0B111490968896896
:1007700001EB41010F4A02EB8100FFF761FE0C49DA
:100780000968896801EB41010A4A02EB81000849C6
:1007900009681831FFF732FE0A2005490968086226
:1007A0003046FFF7ADFEFFF751FF70BDB4010020EA
:1007B000000000203400002070B504460D4665603E
:1007C00004F10C010348FFF719FE606940F00400D2
:1007D000606170BDB401002010B5044604F10C0145
:1007E0000348FFF723FE606920F00400606110BD3C
:1007F000B40100202DE9F04704460D4616461F4679
:10080000DDE908892046FFF728FEA560E6606761FC
:10081000C4F81880C4F81C900DB9266101E0A068E6
:100820002061002084F82000BDE8F0871CB50A2074
:10083000FFF716FE01201549154B0A22CDE90010DD
:1008400064211448FFF7D6FF01201349104B1422EE
:10085000CDE90010C8211148FFF7CCFF0020104956
:100860000B4B0246CDE900104FF496710D48FFF78F
:10087000C1FF00BF00200C4908600120FFF71CFEEB
:10088000012009490860FFF717FEF3E71800002070
:1008900011090000285300201C0000204C530020A8
:1008A00020000020705300201400002000BF002012
:1008B000054908600120FFF7FFFD0120024908609B
:1008C000FFF7FAFDF3E700002400002000BF00203E
:1008D000054908600120FFF7EFFD0120024908608B
:1008E000FFF7EAFDF3E700002800002000BF00202A
:1008F000054908600120FFF7DFFD0120024908607B
:10090000FFF7DAFDF3E700002C00002000BFFEE750
:1009100001460A6882F001020A607047FF00010088
:1009200002000100030001000200010004000100B8
:1009300002000100030001000200010005000100A7
:100940000200010003000100020001000400010098
:100950000200010003000100020001000600010086
:100960000200010003000100020001000400010078
:100970000200010003000100020001000500010067
:100980000200010003000100020001000400010058
:100990000200010003000100020001000700010045
:1009A0000200010003000100020001000400010038
:1009B0000200010003000100020001000500010027
:1009C0000200010003000100020001000400010018
:1009D0000200010003000100020001000600010006
:1009E00002000100030001000200010004000100F8
:1009F00002000100030001000200010005000100E7
:100A000002000100030001000200010004000100D7
:100A10000200010003000100020001003C0A000086
:100A20000000002034000000FC000000700A0000FC
:100A300034000020C4630000180100000000000022
:100A400000000000000000000000000000000000A6
:100A50000000000000000000000000000000000096
:100A6000000000000000000000000000001BB700B4
:04000005000000C136
:00000001FF
