:020000040000FA
:10000000B05200208D010000950100009701000012
:10001000990100009B0100009D010000000000000C
:100020000000000000000000000000009F01000030
:10003000A1010000000000005D0100004702000077
:10004000A7010000A7010000A7010000A701000010
:10005000A7010000A7010000A7010000A701000000
:10006000A7010000A7010000A7010000A7010000F0
:10007000A7010000A7010000A7010000A7010000E0
:10008000A7010000A7010000A7010000A7010000D0
:100090000000000000000000000000000000000060
:1000A0000000000000000000000000000000000050
:1000B000A701000000000000A7010000A701000048
:1000C00000F002F800F03AF80AA090E8000C824430
:1000D0008344AAF10107DA4501D100F02FF8AFF20D
:1000E000090EBAE80F0013F0010F18BFFB1A43F016
:1000F0000103184790080000B0080000103A24BF20
:1001000078C878C1FAD8520724BF30C830C144BF7C
:1001100004680C60704700000023002400250026BE
:10012000103A28BF78C1FBD8520728BF30C148BF5A
:100130000B6070471FB51FBD10B510BD00F049F82A
:100140001146FFF7F7FF00F093F800F067F803B4EB
:10015000FFF7F2FF03BC00F06FF80000EFF3098037
:1001600020B120E9F00F07490968086005480649F1
:100170000A6802601068B0E8F00F80F309884EF05A
:10018000040E70470000002004000020094880474A
:1001900009480047FEE7FEE7FEE7FEE7FEE7FEE769
:1001A000FEE7FEE7FEE7FEE704480549054A064B81
:1001B0007047000051020000C1000000B042002062
:1001C000B0520020B04E0020B04E00207047704763
:1001D0007047754600F02CF8AE4605006946534658
:1001E00020F00700854618B020B5FFF7DDFFBDE819
:1001F00020404FF000064FF000074FF000084FF08E
:10020000000B21F00701AC46ACE8C009ACE8C0091E
:10021000ACE8C009ACE8C0098D46704710B504468B
:10022000AFF300802046BDE81040FFF790BF00000C
:10023000004870475042002001491820ABBEFEE73D
:1002400026000200704710B500F050FA10BD000003
:1002500003480449086004480449086070470000E6
:100260000000000008ED00E0001BB70020000020A7
:1002700008B500F09FF900F00BF900F059F80948B3
:100280001F23002208490090084800F029F9074878
:100290000749086000F010F90649086000F07CF991
:1002A000002008BDD811002081080000B001002006
:1002B000080000200400002001238B4002689A43BC
:1002C0000260704700B50146087818B10878134AF3
:1002D000105C00BD088800F47F4030B10888C0F38E
:1002E00007200E4A105C0830F3E7086800F47F002E
:1002F00030B10868C0F30740084A105C1030E8E7E6
:10030000086800F07F4028B10868000E034A105CBE
:100310001830DEE700F004F8DBE700008408000096
:100320002020704701238B4002681A430260704707
:1003300008B50E4800234FF011320D4900900D48CA
:1003400000F0CEF80C4801234FF022320B49009008
:100350000B4800F0C5F80B4801234FF033320A492F
:1003600000900A4800F0BCF808BD000050220020B0
:1003700001080000D8110020503200203108000090
:1003800000120020504200206108000028120020C6
:1003900042684A60426812680A60426811604160BF
:1003A0008268521C82607047486002680A60026876
:1003B000516001608268521C826070470146886803
:1003C0007047014600208A6802B148687047406063
:1003D0000060002181607047D1E900231A60D1E9F3
:1003E00000325A608268521E8260704701460020C7
:1003F0008A683AB148684268116042684A608A680F
:10040000521E8A60704700604060704730B50246F7
:100410001148006850434FF47A71B0FBF1F0401E70
:100420004FF0E021486148170721002804DB4B0703
:100430001C0E0A4B1C5406E04B071D0E084B00F027
:100440000F04241F1D5500BF00204FF0E0218861DC
:100450000720086130BD00002000002000E400E01B
:1004600018ED00E070B5044600F01AF80546214684
:100470000648006800F0A6F90448006800F0EEF8AD
:10048000284600F013F800F0B1F870BD000000201D
:1004900010B50248FFF79BFF10BD0000A40100202B
:1004A00000BFEFF31081084672B6704700BF80F3BB
:1004B000108800BF7047000070B50748FFF702FFC3
:1004C000044604EB4401054A02EB8100FFF779FF83
:1004D0000546A5F1180070BD0C0000202400002086
:1004E0002DE9F04105460E4617469846069C4FF00A
:1004F0008071201F04460160201F044606601421FD
:10050000201F044601601221201F044601600321C0
:10051000201F044601600221201F044601600121C2
:10052000201F04460160201F044607601121201F80
:10053000044601601021201F044601600921201F8C
:10054000044601600821201F044601600721201F86
:10055000044601600621201F044601600521201F7A
:10056000044601600421201F044601602C60002025
:100570006860C5F80880686105F10C00FFF743FF6B
:1005800005F11800FFF73FFF0A202862284600F017
:100590004FF8BDE8F0810000002080F3098800BF1B
:1005A000FF2003490870C80601491E3908607047DA
:1005B00022ED00E070B5FFF773FF05460020094902
:1005C0000870002407E004EB4401074A02EB8100B5
:1005D000FFF7FDFE641C202CF5DB2846FFF766FFC5
:1005E00070BD0000100000202400002070B5FFF74F
:1005F00057FF05460B480078002803DD2846FFF723
:1006000055FF70BDFFF758FF044607480068844255
:1006100003D00648046000F061F82846FFF746FF63
:1006200000BFEEE7100000200000002004000020C2
:1006300010B50446A16801EB4101064A02EB8100B6
:1006400004F11801FFF7A4FE0348A168FFF76AFE52
:1006500010BD0000240000200C00002010B504464E
:10066000A16801EB41010A4A02EB810004F1180183
:10067000FFF7B2FEA16801EB4101054A02EB8100E0
:10068000FFF79CFE18B90348A168FFF715FE10BDDF
:10069000240000200C00002070B50446FFF700FF86
:1006A0000546207D00F0020088B9606A401C606247
:1006B00001280CD8606940F0040060612046FFF713
:1006C000CDFF05480068844201D1FFF78FFF28461F
:1006D000FFF7ECFE70BD0000000000204FF08050DE
:1006E000014908607047000004ED00E070B5FFF7B5
:1006F000D7FE0646234844680CE0A4F10C05686860
:10070000401E686028B9284600F06CF82846FFF7BC
:100710008FFF64681B488442EFD11B480068006A61
:10072000401E19490968086228BB17490968896889
:1007300001EB4101154A02EB8100FFF73FFED0B10A
:1007400011490968896801EB4101104A02EB8100F7
:10075000FFF74CFE0C490968896801EB41010B4A1F
:1007600002EB8100084909681831FFF71DFE0A20D5
:100770000549096808623046FFF798FEFFF736FF23
:1007800070BD0000A4010020000000202400002013
:1007900070B50446FFF784FE0546207D00F0040096
:1007A00060B1606A401E606240B9606920F0040078
:1007B00060612046FFF73CFFFFF718FF2846FFF770
:1007C00075FE70BD70B504460D46656004F10C0100
:1007D0000348FFF7E9FD606940F00200606170BD09
:1007E000A401002010B5044604F10C010348FFF7F2
:1007F000F3FD606920F00200606110BDA4010020DB
:100800000A20FFF703FE0DE00120074908600748B2
:100810000068FFF741FF00200349086003480068B3
:10082000FFF73AFFF0E7000014000020000000206E
:1008300010E0012008490860FFF714FE0748FFF7A1
:10084000A7FF0020044908600120FFF70BFE0348C2
:10085000FFF79EFFEDE7000018000020D8110020F0
:100860000AE0012005490860FFF7FCFD002003496C
:1008700008600120FFF7F6FDF3E700001C000020F0
:1008800000BFFEE7FF0001000200010003000100BD
:100890000200010004000100020001000300010049
:1008A0000200010005000100020001000300010038
:1008B0000200010004000100020001000300010029
:1008C0000200010006000100020001000300010017
:1008D0000200010004000100020001000300010009
:1008E00002000100050001000200010003000100F8
:1008F00002000100040001000200010003000100E9
:1009000002000100070001000200010003000100D5
:1009100002000100040001000200010003000100C8
:1009200002000100050001000200010003000100B7
:1009300002000100040001000200010003000100A8
:100940000200010006000100020001000300010096
:100950000200010004000100020001000300010088
:100960000200010005000100020001000300010077
:100970000200010004000100020001000300010068
:1009800002000100A4090000000000202400000073
:10099000FC000000C8090000240000208C52000068
:1009A000180100000000000000000000000000002E
:1009B0000000000000000000000000000000000037
:0809C00000000000001BB7005D
:04000005000000C136
:00000001FF
