:020000040000FA
:10000000304100208D0100009501000097010000A3
:10001000990100009B0100009D010000000000000C
:100020000000000000000000000000009F01000030
:10003000A1010000000000005D0100004702000077
:10004000A7010000A7010000A7010000A701000010
:10005000A7010000A7010000A7010000A701000000
:10006000A7010000A7010000A7010000A7010000F0
:10007000A7010000A7010000A7010000A7010000E0
:10008000A7010000A7010000A7010000A7010000D0
:100090000000000000000000000000000000000060
:1000A0000000000000000000000000000000000050
:1000B000A701000000000000A7010000A701000048
:1000C00000F002F800F03AF80AA090E8000C824430
:1000D0008344AAF10107DA4501D100F02FF8AFF20D
:1000E000090EBAE80F0013F0010F18BFFB1A43F016
:1000F00001031847FC0500001C060000103A24BF4D
:1001000078C878C1FAD8520724BF30C830C144BF7C
:1001100004680C60704700000023002400250026BE
:10012000103A28BF78C1FBD8520728BF30C148BF5A
:100130000B6070471FB51FBD10B510BD00F049F82A
:100140001146FFF7F7FF00F093F800F067F803B4EB
:10015000FFF7F2FF03BC00F06FF80000EFF3098037
:1001600020B120E9F00F07490968086005480649F1
:100170000A6802601068B0E8F00F80F309884EF05A
:10018000040E70470000002004000020094880474A
:1001900009480047FEE7FEE7FEE7FEE7FEE7FEE769
:1001A000FEE7FEE7FEE7FEE704480549054A064B81
:1001B0007047000051020000C100000030310020F3
:1001C00030410020303D0020303D00207047704716
:1001D0007047754600F02CF8AE4605006946534658
:1001E00020F00700854618B020B5FFF7DDFFBDE819
:1001F00020404FF000064FF000074FF000084FF08E
:10020000000B21F00701AC46ACE8C009ACE8C0091E
:10021000ACE8C009ACE8C0098D46704710B504468B
:10022000AFF300802046BDE81040FFF790BF00000C
:1002300000487047CC30002001491820ABBEFEE7D3
:1002400026000200704710B500F088F910BD0000CC
:1002500003480449086004480449086070470000E6
:100260000000000008ED00E0001BB70024000020A3
:1002700008B500F03BF9124802234FF01132114942
:100280000090114800F0CCF8104801234FF02232C2
:100290000F4900900F4800F0C3F80F481F230022B9
:1002A0000E4900900E4800F0BBF80D480D4908605B
:1002B00000F0A8F80C49086000F00AF9002008BD19
:1002C000C0100020A9050000A8000020C0200020C8
:1002D000CD050000B4000020CC300020ED0500006A
:1002E000C0200020080000200400002001238B40D3
:1002F00002689A430260704700B50146087818B159
:100300000878134A105C00BD088800F47F4030B1C3
:100310000888C0F307200E4A105C0830F3E708682D
:1003200000F47F0030B10868C0F30740084A105C51
:100330001030E8E7086800F07F4028B10868000E38
:10034000034A105C1830DEE700F004F8DBE7000039
:10035000F00500002020704701238B4002681A43FB
:100360000260704730B502461148006850434FF4B0
:100370007A71B0FBF1F0401E4FF0E0214861481760
:100380000721002804DB4B071C0E0A4B1C5406E017
:100390004B071D0E084B00F00F04241F1D5500BF16
:1003A00000204FF0E02188610720086130BD000087
:1003B0002400002000E400E018ED00E070B50446E1
:1003C00000F014F8054607480068446005480068D6
:1003D00081680548FFF78AFF284600F00DF800F015
:1003E00093F870BD000000200C00002000BFEFF368
:1003F0001081084672B6704700BF80F3108800BFB6
:100400007047000010B50448FFF776FF0446034824
:1004100050F8240010BD00000C000020280000202F
:100420002DE9F04105460F4690461E46069C4FF0CA
:100430008071201F04460160201F044607601421BC
:10044000201F044601601221201F04460160032181
:10045000201F044601600221201F04460160012183
:10046000201F04460160201F0446C0F800801121AF
:10047000201F044601601021201F0446016009214D
:10048000201F044601600821201F04460160072147
:10049000201F044601600621201F0446016005213B
:1004A000201F044601600421201F044601602C60C7
:1004B00000206860AE60044840F82650314603488A
:1004C000FFF74AFFBDE8F081280000200C00002063
:1004D000002080F3098800BFFF2003490870C80688
:1004E00001491E390860704722ED00E010B5FFF7A2
:1004F0007DFF04460020034908702046FFF77CFF7B
:1005000010BD00001000002070B5FFF76FFF05461A
:100510000B480078002803DD2846FFF76DFF70BD0B
:10052000FFF770FF044607480068844203D006487E
:10053000046000F00BF82846FFF75EFF00BFEEE70F
:100540001000002000000020040000204FF0805028
:10055000014908607047000004ED00E070B5FFF746
:1005600045FF0546002413E00D4850F8240040687C
:1005700048B10B4850F824004068401E084951F823
:100580002410486003E021460648FFF7E5FE641C9E
:10059000202CE9DB2846FFF72FFFFFF7B5FF70BDE2
:1005A000280000200C0000200A20FFF7DBFE0AE0F4
:1005B000012005490860FFF701FF0020024908609B
:1005C0000120FFF7FBFEF3E7180000200AE00120FE
:1005D00005490860FFF7F2FE00200349086001208A
:1005E000FFF7ECFEF3E700002000002000BFFEE76D
:1005F000FF000100020001000300010002000100F1
:1006000004000100020001000300010002000100DB
:1006100005000100020001000300010002000100CA
:1006200004000100020001000300010002000100BB
:1006300006000100020001000300010002000100A9
:10064000040001000200010003000100020001009B
:10065000050001000200010003000100020001008A
:10066000040001000200010003000100020001007B
:100670000700010002000100030001000200010068
:10068000040001000200010003000100020001005B
:10069000050001000200010003000100020001004A
:1006A000040001000200010003000100020001003B
:1006B0000600010002000100030001000200010029
:1006C000040001000200010003000100020001001B
:1006D000050001000200010003000100020001000A
:1006E00004000100020001000300010002000100FB
:1006F000100700000000002028000000FC0000009F
:100700003807000028000020084100001801000000
:1007100000000000000000000000000000000000D9
:1007200000000000000000000000000000000000C9
:0807300000000000001BB700EF
:04000005000000C136
:00000001FF
