:020000040000FA
:10000000906300208D010000950100009701000021
:10001000990100009B0100009D010000000000000C
:100020000000000000000000000000009F01000030
:10003000A1010000000000005D0100004702000077
:10004000A7010000A7010000A7010000A701000010
:10005000A7010000A7010000A7010000A701000000
:10006000A7010000A7010000A7010000A7010000F0
:10007000A7010000A7010000A7010000A7010000E0
:10008000A7010000A7010000A7010000A7010000D0
:100090000000000000000000000000000000000060
:1000A0000000000000000000000000000000000050
:1000B000A701000000000000A7010000A701000048
:1000C00000F002F800F03AF80AA090E8000C824430
:1000D0008344AAF10107DA4501D100F02FF8AFF20D
:1000E000090EBAE80F0013F0010F18BFFB1A43F016
:1000F00001031847B40A0000D40A0000103A24BFD4
:1001000078C878C1FAD8520724BF30C830C144BF7C
:1001100004680C60704700000023002400250026BE
:10012000103A28BF78C1FBD8520728BF30C148BF5A
:100130000B6070471FB51FBD10B510BD00F049F82A
:100140001146FFF7F7FF00F093F800F067F803B4EB
:10015000FFF7F2FF03BC00F06FF80000EFF3098037
:1001600020B120E9F00F07490968086005480649F1
:100170000A6802601068B0E8F00F80F309884EF05A
:10018000040E70470000002004000020094880474A
:1001900009480047FEE7FEE7FEE7FEE7FEE7FEE769
:1001A000FEE7FEE7FEE7FEE704480549054A064B81
:1001B0007047000051020000C10000009053002071
:1001C00090630020905F0020905F00207047704790
:1001D0007047754600F02CF8AE4605006946534658
:1001E00020F00700854618B020B5FFF7DDFFBDE819
:1001F00020404FF000064FF000074FF000084FF08E
:10020000000B21F00701AC46ACE8C009ACE8C0091E
:10021000ACE8C009ACE8C0098D46704710B504468B
:10022000AFF300802046BDE81040FFF790BF00000C
:10023000004870473053002001491820ABBEFEE74C
:1002400026000200704710B500F05EFB10BD0000F4
:1002500003480449086004480449086070470000E6
:100260000000000008ED00E0001BB70024000020A3
:1002700008B500F0CFFA00F035FA00F075F909483A
:100280001F23002208490090084800F053FA07484D
:100290000749086000F03AFA0649086000F0ACFA35
:1002A000002008BDFC110020A50A0000B4010020B8
:1002B000080000200400002001238B4002689A43BC
:1002C0000260704700B50146087818B10878134AF3
:1002D000105C00BD088800F47F4030B10888C0F38E
:1002E00007200E4A105C0830F3E7086800F47F002E
:1002F00030B10868C0F30740084A105C1030E8E7E6
:10030000086800F07F4028B10868000E034A105CBE
:100310001830DEE700F004F8DBE70000A80A000070
:100320002020704701238B4002681A430260704707
:1003300070B504460D462570201D00F072F970BDA1
:100340002DE9F04104460D46164600F0D3F9074664
:10035000616B081D04F1180100F068F9002060636A
:10036000A563E663606920F47F006061384600F0B1
:10037000C7F9BDE8F0812DE9F04705460C46164661
:100380001F46DDF8208000F0B5F9814660693843EA
:1003900060616563A6630020E063204600F08EFA8A
:1003A00004F11801281D00F029F9B8F1000F03D05D
:1003B0004146204600F000FB484600F0A1F9BDE8A8
:1003C000F0872DE9F04105460C4617461E4600F021
:1003D00091F9804604F11801281D00F027F900204A
:1003E0006063A763E663606920F47F006061606812
:1003F00010B1204600F0F0FA204600F049FA4046DD
:1004000000F07EF92046BDE8F0812DE9F041034679
:100410000C46116804F0010604F0020704F0800C99
:1004200016B11869084003E0D3F8108021EA0800EB
:1004300005460FB18D4201D07FB975B1BCF1000FF7
:1004400007D01EB118698843186102E01869084393
:10045000186115600020BDE8F08115600220FAE700
:1004600070B504460D4604212046FFF761FF256163
:1004700070BD2DE9FC5F0446894617464FF0000A1F
:1004800000F038F90190B9F1000F03D0206938432A
:10049000206102E02069B843206104F10408D8F823
:1004A000045017E0A5F11806706C00906A462046CB
:1004B000316CFFF7AAFF8346BBF1000F09D100980A
:1004C000706400231A4631462046FFF77AFF4FF04A
:1004D000010A6D684545E5D1BAF1000F05D00198D4
:1004E00000F00EF900F0B2F902E0019800F008F90E
:1004F000BDE8FC9F2DE9FC4780460E4614461D468C
:10050000DDF82890019400F0F5F8824601AA314602
:100510004046FFF77AFF0746DFB1124800680664DD
:10052000104800684464042300220E48CDF800906F
:1005300001684046FFF71FFF504600F0E1F800F069
:1005400085F908480068406C286006480068C76B59
:1005500004E001982860504600F0D2F83846BDE823
:10056000FC8700000000002008B5124800234FF06F
:10057000113211490090114800F0DCF810480123B5
:100580004FF022320F4900900F4800F0D3F80F4887
:1005900001234FF033320E4900900E4800F0CAF8A4
:1005A0000D4801234FF044320C4900900C4800F0F4
:1005B000C1F808BD1C230020F5090000FC11002033
:1005C0001C330020310A0000441200201C4300208C
:1005D000650A00008C1200201C530020850A0000D0
:1005E000D412002042684A60426812680A60426879
:1005F000116041608268521C8260704748600268E6
:100600000A600268516001608268521C8260704713
:10061000014688687047014600208A6802B1486830
:10062000704740600060002181607047D1E900237D
:100630001A60D1E900325A608268521E82607047A7
:10064000014600208A683AB14868426811604268F1
:100650004A608A68521E8A60704700604060704736
:1006600030B502461148006850434FF47A71B0FB30
:10067000F1F0401E4FF0E0214861481707210028A3
:1006800004DB4B071C0E0A4B1C5406E04B071D0EE7
:10069000084B00F00F04241F1D5500BF00204FF031
:1006A000E02188610720086130BD0000240000209F
:1006B00000E400E018ED00E070B5044600F01AF820
:1006C000054621460648006800F076F904480068AF
:1006D00000F0F4F8284600F013F800F0B7F870BD09
:1006E0000000002010B50248FFF79BFF10BD00007E
:1006F000A801002000BFEFF31081084672B67047D2
:1007000000BF80F3108800BF7047000070B5074835
:10071000FFF7D8FD044604EB4401054A02EB8100D3
:10072000FFF779FF0546A5F1180070BD0C00002009
:10073000280000202DE9F04105460E461746984650
:10074000069C4FF08071201F04460160201F044664
:1007500006601421201F044601601221201F044658
:1007600001600321201F044601600221201F04466E
:1007700001600121201F04460160201F044607601C
:100780001121201F044601601021201F0446016032
:100790000921201F044601600821201F0446016032
:1007A0000721201F044601600621201F0446016026
:1007B0000521201F044601600421201F044601601A
:1007C0002C6000206860C5F8088068610A202862F3
:1007D00000206862A862E86285F8300005F10C002C
:1007E000FFF73BFF05F11800FFF737FF284600F041
:1007F0004FF8BDE8F0810000002080F3098800BFB9
:10080000FF2003490870C80601491E390860704777
:1008100022ED00E070B5FFF76DFF054600200949A5
:100820000870002407E004EB4401074A02EB810052
:10083000FFF7F7FE641C202CF5DB2846FFF760FF6E
:1008400070BD0000100000202800002070B5FFF7E8
:1008500051FF05460B480078002803DD2846FFF7C6
:100860004FFF70BDFFF752FF0446074800688442FF
:1008700003D00648046000F03FF82846FFF740FF29
:1008800000BFEEE710000020000000200400002060
:1008900010B50446A16801EB4101064A02EB810054
:1008A00004F11801FFF79EFE0348A168FFF73AFD27
:1008B00010BD0000280000200C00002010B50446E8
:1008C000A16801EB41010A4A02EB810004F1180121
:1008D000FFF7ACFEA16801EB4101054A02EB810084
:1008E000FFF796FE18B90348A168FFF7E5FC10BDB5
:1008F000280000200C0000204FF0805001490860C3
:100900007047000004ED00E070B5FFF7F3FE064607
:100910002648456813E0A5F10C046068401E60603D
:1009200060B9606B20B1012200212046FFF708FD6D
:10093000204600F051F82046FFF7AAFF6D681B48DB
:100940008542E8D11A480068006A401E18490968C3
:10095000086228BB16490968896801EB4101154AFC
:1009600002EB8100FFF754FED0B111490968896894
:1009700001EB41010F4A02EB8100FFF761FE0C49D8
:100980000968896801EB41010A4A02EB81000849C4
:1009900009681831FFF732FE0A2005490968086224
:1009A0003046FFF7ADFEFFF751FF70BDA8010020F4
:1009B000000000202800002070B504460D46656048
:1009C00004F10C010348FFF719FE606940F00400D0
:1009D000606170BDA801002010B5044604F10C014F
:1009E0000348FFF723FE606920F00400606110BD3A
:1009F000A80100200A20FFF733FEFF210A48FFF775
:100A00002FFD00BF0020094908600120FFF754FEB8
:100A1000012006490860FFF74FFE06220021024828
:100A2000FFF727FDEEE700001C5300201400002014
:100A30001CB500BF0A2001AB0422822100900748A8
:100A4000FFF758FD0020064908600120FFF734FE3B
:100A5000012003490860FFF72FFEEBE71C5300203D
:100A60001800002000BF0020054908600120FFF7A2
:100A700023FE012002490860FFF71EFEF3E7000095
:100A80001C00002000BF0020054908600120FFF77E
:100A900013FE012002490860FFF70EFEF3E7000095
:100AA0002000002000BFFEE7FF000100020001005F
:100AB0000300010002000100040001000200010027
:100AC0000300010002000100050001000200010016
:100AD0000300010002000100040001000200010007
:100AE00003000100020001000600010002000100F5
:100AF00003000100020001000400010002000100E7
:100B000003000100020001000500010002000100D5
:100B100003000100020001000400010002000100C6
:100B200003000100020001000700010002000100B3
:100B300003000100020001000400010002000100A6
:100B40000300010002000100050001000200010095
:100B50000300010002000100040001000200010086
:100B60000300010002000100060001000200010074
:100B70000300010002000100040001000200010066
:100B80000300010002000100050001000200010055
:100B90000300010002000100040001000200010046
:100BA0000300010002000100C80B0000000000204B
:100BB00028000000FC000000F00B000028000020CE
:100BC0006863000018010000000000000000000041
:100BD0000000000000000000000000000000000015
:100BE000000000000000000000000000001BB70033
:04000005000000C136
:00000001FF
