:020000040000FA
:10000000587400208D010000950100009701000048
:10001000990100009B0100009D010000000000000C
:100020000000000000000000000000009F01000030
:10003000A1010000000000005D010000930200002B
:10004000A7010000A7010000A7010000A701000010
:10005000A7010000A7010000A7010000A701000000
:10006000A7010000A7010000A7010000A7010000F0
:10007000A7010000A7010000A7010000A7010000E0
:10008000A7010000A7010000A7010000A7010000D0
:100090000000000000000000000000000000000060
:1000A0000000000000000000000000000000000050
:1000B000A701000000000000A7010000A701000048
:1000C00000F002F800F03AF80AA090E8000C824430
:1000D0008344AAF10107DA4501D100F02FF8AFF20D
:1000E000090EBAE80F0013F0010F18BFFB1A43F016
:1000F00001031847C8150000E8150000103A24BF96
:1001000078C878C1FAD8520724BF30C830C144BF7C
:1001100004680C60704700000023002400250026BE
:10012000103A28BF78C1FBD8520728BF30C148BF5A
:100130000B6070471FB51FBD10B510BD00F070F803
:100140001146FFF7F7FF00F041F900F08EF803B415
:10015000FFF7F2FF03BC00F095F80000EFF3098011
:1001600020B120E9F00F07490968086005480649F1
:100170000A6802601068B0E8F00F80F309884EF05A
:10018000040E70470000002004000020094880474A
:1001900009480047FEE7FEE7FEE7FEE7FEE7FEE769
:1001A000FEE7FEE7FEE7FEE704480549054A064B81
:1001B000704700009D020000C1000000586400204C
:1001C0005874002058700020587000204FF0000232
:1001D00000B5134694469646203922BFA0E80C503D
:1001E000A0E80C50B1F12001BFF4F7AF090728BF18
:1001F000A0E80C5048BF0CC05DF804EB890028BF94
:1002000040F8042B08BF704748BF20F8022B11F0BC
:10021000804F18BF00F8012B704770477047704738
:10022000754600F02BF8AE4605006946534620F0AF
:100230000700854618B020B5FFF7B6FFBDE820409F
:100240004FF000064FF000074FF000084FF0000B92
:1002500021F00701AC46ACE8C009ACE8C009ACE845
:10026000C009ACE8C0098D46704710B50446AFF32D
:1002700000802046BDE81040FFF769BF0048704786
:10028000F463002001491820ABBEFEE726000200FF
:10029000704710B500F00AFC10BD00000348044987
:1002A000086004480449086070470000000000002E
:1002B00008ED00E0001BB7003C0000202DE9FC5FCA
:1002C0002248006838B901202049086000202049F0
:1002D0000860BDE8FC9F1E480068642809D11D48DD
:1002E00000681D49086000201A49086000F06AFB98
:1002F00029E0174800686421B0FBF1F201FB12000D
:1003000008BB1548006800F04BFF04460D46114835
:10031000006800F045FF80460022104B00F054FFBB
:10032000064622462B4600F0E3FD824600220B4B98
:1003300001F048F8CDE9000100F000FD084908602F
:1003400000200449086000BFC3E70000240000202B
:100350001C0000201400002018000020000059405C
:100360002000002000BF024800680028FBD0704732
:100370002400002000F012FB00F01CF900F042FC09
:100380000A2000F003FAFFF7EDFF00BF00F048FA83
:10039000044604480068401C02490860204600F0FA
:1003A00045FAF3E7140000200020044908600449DE
:1003B0000860044908600449086070471400002080
:1003C0001800002020000020240000201CB500F0B0
:1003D00011FB00F01DFA00F029FC00F0E9FBFFF72B
:1003E000E3FF4FF4806008491F230022CDE900108D
:1003F0000649074800F034FA00F01EFA0549086083
:1004000000F09CFA00201CBD1C02002075030000B7
:10041000CC0100200400002001238B4002689A4395
:100420000260704700B50146087818B10878134A91
:10043000105C00BD088800F47F4030B10888C0F32C
:1004400007200E4A105C0830F3E7086800F47F00CC
:1004500030B10868C0F30740084A105C1030E8E784
:10046000086800F07F4028B10868000E034A105C5D
:100470001830DEE700F007F8DBE70000BA150000EF
:100480000021016070472020704701238B400268E3
:100490001A4302607047000070B5002400F0C0F9F4
:1004A000054603480468284600F0C0F9204670BDA0
:1004B0002000002070B504460D462570201D00F078
:1004C000E2F870BD2DE9F04104460D46164600F0F5
:1004D000A7F90746E16B081D04F1200100F0D8F8E8
:1004E0000020E06325646664E06920F47F00E06139
:1004F000384600F09BF9BDE8F0812DE9F04705464C
:100500000C4616461F46DDF8208000F089F981462A
:10051000E06940EA0740E061E5632664002060642A
:10052000204600F09DFA04F12001281D00F098F803
:10053000B8F1000F03D04146204600F01BFB4846AF
:1005400000F074F9BDE8F08770B50446002500F0AE
:1005500067F90646201D00F08DF80546304600F08C
:1005600065F9284670BD2DE9F04705460E46174649
:10057000002400F055F98146281D00F093F8B0F1F1
:10058000000811D0A8F120040020E063266467640D
:10059000E06920F47F00E061E06810B1204600F0DF
:1005A000F9FA204600F046FA484600F03FF92046A6
:1005B000BDE8F0871CB54FF48050174900234FF079
:1005C0001132CDE900101549154800F049F94FF4F2
:1005D0008050144901234FF02232CDE90010124916
:1005E000124800F03DF94FF48050114901234FF0BB
:1005F0003332CDE900100F490F4800F031F94FF4C4
:1006000080500E4901234FF04432CDE900100C49CF
:100610000C4800F025F91CBD5C130020B10C000053
:100620001C1200205C230020DD0C00006C12002056
:100630005C330020FD0C0000BC1200205C43002055
:100640001D0D00000C13002042684A6042681268C9
:100650000A604268116041608268521C8260704783
:10066000486002680A600268516001608268521C3A
:1006700082607047014688687047014600208A689A
:1006800002B1486870474060006000218160704797
:10069000D1E900231A60D1E900325A608268521E03
:1006A00082607047014600208A683AB14868426813
:1006B000116042684A608A68521E8A607047006012
:1006C0004060704770B504460E461546012120462D
:1006D000FFF7F0FE65610DB9266105E0AE4201D27B
:1006E000304600E02846206170BD000070B5044629
:1006F00000F096F806462046FFF726FF88B1002254
:1007000011462046FFF72FFF05460D492869096865
:100710000969884204D2304600F088F800F01CF9DC
:100720000AE02069401C2061606928B1D4E9040115
:10073000884201D960692061304600F077F870BDC9
:1007400000000020F8B504460D4600F069F80646A2
:10075000206938B12069401E2061304600F066F8FB
:100760000020F8BD012300220748009501682046BB
:10077000FFF7C3FE304600F059F800F0EDF80248EC
:100780000068406CEDE700000000002030B5024634
:100790001148006850434FF47A71B0FBF1F0401EED
:1007A0004FF0E021486148170721002804DB4B0780
:1007B0001C0E0A4B1C5406E04B071D0E084B00F0A4
:1007C0000F04241F1D5500BF00204FF0E021886159
:1007D0000720086130BD00003C00002000E400E07C
:1007E00018ED00E070B5044600F01AF80546214601
:1007F0000648006800F0BEF90448006800F030F9CF
:10080000284600F013F800F0A7F870BD00000020A3
:1008100010B50248FFF737FF10BD0000C0010020EF
:1008200000BFEFF31081084672B6704700BF80F337
:10083000108800BF7047000070B50748FFF7F2FD51
:10084000044604EB4401054A02EB8100FFF715FF63
:100850000546A5F1200070BD0C00002040000020DE
:100860002DE9F0470546884691469A46DDE9086736
:100870006E60AF6039463046FFF7A8FCB80806EB5B
:1008800080044FF08071201F04460160201F044641
:10089000C0F800801421201F044601601221201F8F
:1008A000044601600321201F044601600221201F2D
:1008B000044601600121201F04460160201F0446F8
:1008C000C0F800901121201F044601601021201F54
:1008D000044601600921201F044601600821201FF1
:1008E000044601600721201F044601600621201FE5
:1008F000044601600521201F044601600421201FD9
:10090000044601602C600020E860C5F810A0E86192
:100910000A20A8620020E8622863686385F838002E
:1009200005F11400FFF7CBFE05F12000FFF7C7FE2D
:10093000284600F07FF8BDE8F0870000002080F333
:10094000098800BFFF2003490870C80601491E3905
:100950000860704722ED00E070B5FFF761FF0546C3
:100960000B480078002803DD2846FFF75FFF70BDC5
:10097000FFF762FF044607480068844203D0064838
:10098000046000F08BF82846FFF750FF00BFEEE749
:1009900010000020000000200400002010B5FFF728
:1009A0003FFF044606480078FF2804DA0448007830
:1009B000401C034908702046FFF738FF10BD0000B7
:1009C0001000002010B5FFF72BFF04460848007800
:1009D000002808DD06480078401EC0B204490870AF
:1009E00008B9FFF7B9FF2046FFF720FF10BD000050
:1009F0001000002070B5FFF713FF054600200A49DC
:100A000008700A48FFF73CFD002407E004EB4401AE
:100A1000074A02EB8100FFF736FE641C202CF5DB51
:100A20002846FFF703FF70BD100000200C000020D7
:100A30004000002010B50446216901EB4101064A3F
:100A400002EB810004F12001FFF7FEFD034821695C
:100A5000FFF71BFD10BD0000400000200C0000202F
:100A600010B50446216901EB41010A4A02EB8100FD
:100A700004F12001FFF70CFE216901EB4101054A59
:100A800002EB8100FFF7F6FD18B903482169FFF773
:100A9000C3FC10BD400000200C0000204FF080502F
:100AA000014908607047000004ED00E070B5FFF7F1
:100AB000B7FE06462B48456813E0A5F11404E0682C
:100AC000401EE06060B9E06B20B1012200212046A9
:100AD000FFF7F8FC204600F05DF82046FFF7AAFF7C
:100AE0006D6820488542E8D11F480068806A401E32
:100AF0001D490968886228BB1B490968096901EB1F
:100B000041011A4A02EB8100FFF7B4FDD0B116494A
:100B10000968096901EB4101144A02EB8100FFF702
:100B2000C1FD11490968096901EB41010F4A02EB56
:100B300081000D4909682031FFF792FD0A200A491A
:100B4000096888620A480068401C09490860FFF784
:100B5000B5FB3046FFF76AFE00F082F8FFF7FCFEB7
:100B600070BD0000C00100200000002040000020F7
:100B70001C00002070B504460D46E56004F1140128
:100B80000348FFF76DFDE06940F00400E06170BDCF
:100B9000C001002010B5044604F114010348FFF71A
:100BA00077FDE06920F00400E06110BDC001002085
:100BB00000200149086070471C00002070B5054600
:100BC0006E681CE03446206918B12069401E20611F
:100BD000A0B9022084F82000D4E90510884701203C
:100BE00084F82000E06810B1E068206106E021464A
:100BF0002846FFF74DFD032084F820007668AE42BA
:100C0000E0D170BD1CB54FF480600549012300227E
:100C1000CDE9001003490448FFF722FE1CBD000087
:100C2000F4530020850C0000A453002010B50848A0
:100C3000FFF729FD0748FFF726FD01221146064868
:100C4000FFF740FD002211460448FFF73BFD10BDB1
:100C50005C53002068530020745300208C53002004
:100C600010B5FFF7DDFD04460448FFF7A7FF204657
:100C7000FFF7DCFD0248FFF739FD10BD5C53002093
:100C80008C53002000BF00210648FFF75BFD0021C8
:100C90000548FFF757FD0548FFF790FF0248FFF7AB
:100CA00025FDF0E78C53002074530020685300208A
:100CB00000BF012007490860FFF794FD00200549A7
:100CC00008600120FFF78EFDFFF7E6FB0249086090
:100CD000EFE70000280000202C00002000BF0120CA
:100CE00005490860FFF77EFD0020034908600120E8
:100CF000FFF778FDF3E700003000002000BF01207F
:100D000005490860FFF76EFD0020034908600120D7
:100D1000FFF768FDF3E700003400002000BF01206A
:100D200005490860FFF75EFD0020034908600120C7
:100D3000FFF758FDF3E700003800002021F00042E3
:100D4000A2F16052B2F5801F01F0004328BFD2F13A
:100D50007F6C0BD95FEA001C43EAC20242EB507081
:100D600018BF704728BF20F001007047B2F5801F00
:100D7000BCBF184670474FEA410C1CF5001F02D259
:100D8000084600F015BC70B500F0C8FA00000089F4
:100D9000FFF7F6BF4FF00040A0F58000704700005D
:100DA00010B591EA030F48BF83F0004300F11E83A2
:100DB000841A71EB030C05D2121943EB0C03001BD0
:100DC00061EB0C01DFF824E14FEA1154A4EB135C52
:100DD0001EEA430F18BF9EEA445F73D023EA0E0356
:100DE000DCF1200E21EA045143F4801332D322FABD
:100DF0000CFE10EB0E0023FA0CFE41EB0E01CCF1C1
:100E0000200E03FA0EFE10EB0E0051F10001B1F5B9
:100E1000801FCCF1200E32D201EB045112FA0EF2F7
:100E2000BDE8104058BF7047401C38BF5FEA42021F
:100E300018BF7047002814BF20F0010041F10001E5
:100E40004FEA410313F5001F38BF7047A1F1C041BD
:100E500000F0B2BA012A43EB0302ACF1200CDCF142
:100E60001F0E32BF4FF0000E23FA0CF310EB0300FD
:100E700041EB0451B4EB115FD0D0A1EB045101F56B
:100E8000801149085FEA300001EB04510ED350F1A4
:100E9000000038BF12FA0EFE08D1BDE81040C9E7C5
:100EA000401C38BF5FEA4202CAD1C3E7BDE8104028
:100EB0004FEA410313F5001F38BF7047A1F1C0414D
:100EC00000F07ABA9EEA445F08D011EA5E0FBDE8EE
:100ED000104004BF01F0004100207047BDE8104001
:100EE00070B500F01BFA00BF64FBBE3E0000E0FFDF
:100EF0002DE9C04130B4DFF8A0C23CEA111418BF9C
:100F00003CEA131400F0EC8081EA03051CEA11149A
:100F100044EAD57418BF1CEA131500F0C780A4EB8F
:100F200005044FF0004545EAC12145EAC32341EAE3
:100F3000505143EA525304F17F74994204F500344E
:100F40004FEAC0204FEAC22208BF904200F09C80C6
:100F50004FEA13650FF24016765D4FEA134506FB24
:100F600005F7C7F1807706FB07F74FEAD737A7FBEE
:100F700003687642C8F58038A7FB06CE38BFA8F1D3
:100F8000010807FB08E64FF0000EA6FB028CE6FB0B
:100F900003CEDCF1000CCEF1004E38BFAEF1010EF5
:100FA000A6FB0C584FF000074FF00005E6FB0E873C
:100FB000A1FB08C6A0FB07CE16EB0E0645F1000507
:100FC000E1FB076515F1E04E7EBFA4F580345FEAD2
:100FD00046066D4116F1800745F100054FEA1727D7
:100FE0004FEA066647EA0567A6F1DE46B6F1805F7E
:100FF0004FEA15251FD9384624F0010C05EBC471C2
:10100000BCF1FE6F01EB0C1102D8F0BCBDE8008111
:1010100024425CBF01F5801E9EEAC47F02D4F0BC6E
:10102000BDE80081244238D4F0BCA1F1C041BDE844
:10103000004100F0C1B94FEAD22242EA43524FEADE
:10104000D323A7FB02864FEAD02040EA415007FB9A
:1010500003661EEA0E0F4FEAD12105FB026658BF58
:10106000A6EB0056B6EB00564FEA520E4EEAC37E90
:1010700018EB0E0E56EB530EBDD518EB02085E4171
:101080007F1C55F10005B6E74FF480154FF00007BF
:101090004FF000064FF00008ADE7F0BC4FF0000045
:1010A00001F1C04101F00041BDE8008111EA0C1FCF
:1010B0000CEA131500D00CE013EA0C1F00F0258099
:1010C0004FF00000F0BC81EA030101F00041BDE8EF
:1010D0000081F0BCBDE8004181EA030100F06CB979
:1010E000F0BCBDE8004170B500F018F9097EFC3E87
:1010F00000F007B881EA03014FF0000001F0004161
:10110000704781EA030100F057B9F0BCBDE8004127
:101110004FF0000021497047FFFDFBF9F7F5F4F2AD
:10112000F0EEEDEBE9E8E6E4E3E1E0DEDDDBDAD882
:10113000D7D5D4D3D1D0CFCDCCCBCAC8C7C6C5C4E0
:10114000C2C1C0BFBEBDBCBBBAB9B8B7B6B5B4B3F7
:10115000B2B1B0AFAEADACABAAA9A8A8A7A6A5A4E2
:10116000A3A3A2A1A09F9F9E9D9C9C9B9A999998A6
:101170009797969595949393929191908F8F8E8E49
:101180008D8C8C8B8B8A89898888878786858584D6
:1011900084838382828181800000FF070000F87FC2
:1011A000B0FA80F310FA03F10AD0C3F11D0303F57E
:1011B00080634FEA41504FEA035202EBD12170475E
:1011C0004FF0000070470000DFF848C170B51CEA1E
:1011D000111E1EBF1CEA13159EEA0C0F95EA0C0F98
:1011E00000F06F8081EA030423EA4C134EEAD47EB8
:1011F00021EA4C1141F4801143F48013AE44A1FB69
:10120000024CA0FB0365AEF17F7E361955EB0C0551
:10121000A1FB034C4CF10003A0FB021C16EB0C06D7
:10122000654153F10003094218BF46F0010613F46B
:10123000007F0BD14FEA03314FEA0530340341EA16
:10124000155140EA16506FF003020AE04FEAC3213D
:101250004FEAC520F40241EA555140EA56506FF07A
:10126000020202EB2E4201EB025585EACE710AD052
:101270005FEA440C18BF24F0004450F1000041F133
:10128000000120EAD47040F2FE7C624500D270BDBD
:10129000A84214BF4FF080444FF04044002E08BFD6
:1012A0000024BEF1806FA8BFA1F1C041BDE870402D
:1012B00080F282804FF0000001F1C04101F0004156
:1012C00070479EEA0C0F0CEA131518BF95EA0C0F35
:1012D00006D04FF0000081EA030E0EF0004170BD11
:1012E00000F01CF88900013E00F007B800F009B8D2
:1012F0004FEA430C5FEA5C5C08D081EA030100F02E
:101300005BB84FEA410C5FEA5C5CF6D14FF000003D
:10131000014970470000FF070000F87F0EF1020E40
:101320002EF0030E5EF8046B364205D4012A43EB1F
:10133000030515F5001F12D8012841EB010C1CF51F
:10134000001F0CD80ED14FEAD17C15F5001F0CEB15
:101350004C0C0CF1020C08BF4CEBD37C04E04FF0BA
:10136000080C01E04FEAD37C0CEB4C0526FA05F69D
:1013700006F00706B6F1040C06D20EEB860CBDE8AB
:1013800070404CF0010C6047DFE80CF0090B0202E2
:101390004FF000414FF00000A1F5002170BD19464B
:1013A0001046012851EB010418BFD4F5001484BF86
:1013B000002001F0004170BD0808A0F500114FEABF
:1013C0003101704791EA030F10B581F000413FF5FC
:1013D000EFAC83F0004300F009B8000010B591EACB
:1013E000030F48BF83F000433FF5E2AC841A71EB72
:1013F000030C07D212198CF0004C43EB0C03001BBA
:1014000061EB0C01DFF8A4E14FEA1154A4EB135C8B
:101410001EEA430F18BF9EEA445F00F0B08023EA43
:101420006E03524221EA0451C3EB6E0338BF5B1EC8
:10143000DCF1200E25D322FA0CFE10EB0E0043FA4D
:101440000CFE41EB0E01CCF1200E03FA0EFE10EB68
:101450000E0051F10001CCF1200E29D412FA0EF247
:1014600001EB0451BDE8104058BF7047401C1CBF41
:10147000B2F1004F704700280CBF491C20F001005A
:10148000704712EB020E43EB030218BF4FF0010E40
:101490004EEA4202ACF1200CDCF11E0E54D943FAA4
:1014A0000CFE10EB0E0051F1FF31CCF11E0ED5D524
:1014B0000EF1010E12FA0EFE404141EB010101EB6B
:1014C000445C5FEA5C5C10D910EBDE7001EB045108
:1014D00038BFBEF1004FBDE8104018BF704700286C
:1014E0000CBF491C20F00100704730D24FEAD42CC9
:1014F00011F5001124F400641BD0B1FA81F20B3A0B
:10150000A41AA41ED2F12003914030FA03F3194328
:10151000904001EBCC71002C01EB0451BDE8104070
:10152000A8BF704701F1C0414FF0000001F0004139
:101530007047B0FA80F310FA03F100D110BDE41A3D
:10154000173C4805C90AE4E701EB045110BD4910F6
:1015500001EB0451BDE810404FEA300002E04FF0CB
:10156000000170474A0008BF0042F8D0B2F5001FE2
:1015700028BF704701F000414FF0000070479EEA1D
:10158000445F07D011EA5E0FBDE8104004BF0021A0
:1015900000207047BDE8104070B5FFF7BFFE00BFE8
:1015A00040DFF63E83F00041104670470000E0FF48
:1015B000FF2141EAD050C0057047FF000100020042
:1015C000010003000100020001000400010002000C
:1015D00001000300010002000100050001000200FB
:1015E00001000300010002000100040001000200EC
:1015F00001000300010002000100060001000200DA
:1016000001000300010002000100040001000200CB
:1016100001000300010002000100050001000200BA
:1016200001000300010002000100040001000200AB
:101630000100030001000200010007000100020098
:10164000010003000100020001000400010002008B
:10165000010003000100020001000500010002007A
:10166000010003000100020001000400010002006B
:101670000100030001000200010006000100020059
:10168000010003000100020001000400010002004B
:10169000010003000100020001000500010002003A
:1016A000010003000100020001000400010002002B
:1016B000010003000100020001000000DC16000030
:1016C0000000002040000000FC0000001C1700008B
:1016D0004000002018740000180100000000000005
:1016E00000000000000000000000000000000000FA
:1016F00000000000000000000000000000000000EA
:1017000000000000000000000000000000000000D9
:0C1710000000000000000000001BB700FB
:04000005000000C136
:00000001FF
