:020000040000FA
:10000000984000208D01000095010000970100003C
:10001000990100009B0100009D010000000000000C
:100020000000000000000000000000009F01000030
:10003000A1010000000000005D0100004702000077
:10004000A7010000A7010000A7010000A701000010
:10005000A7010000A7010000A7010000A701000000
:10006000A7010000A7010000A7010000A7010000F0
:10007000A7010000A7010000A7010000A7010000E0
:10008000A7010000A7010000A7010000A7010000D0
:100090000000000000000000000000000000000060
:1000A0000000000000000000000000000000000050
:1000B000A701000000000000A7010000A701000048
:1000C00000F002F800F03AF80AA090E8000C824430
:1000D0008344AAF10107DA4501D100F02FF8AFF20D
:1000E000090EBAE80F0013F0010F18BFFB1A43F016
:1000F00001031847D0040000F0040000103A24BFA8
:1001000078C878C1FAD8520724BF30C830C144BF7C
:1001100004680C60704700000023002400250026BE
:10012000103A28BF78C1FBD8520728BF30C148BF5A
:100130000B6070471FB51FBD10B510BD00F049F82A
:100140001146FFF7F7FF00F093F800F067F803B4EB
:10015000FFF7F2FF03BC00F06FF80000EFF3098037
:1001600020B120E9F00F07490968086005480649F1
:100170000A6802601068B0E8F00F80F309884EF05A
:10018000040E70470000002004000020094880474A
:1001900009480047FEE7FEE7FEE7FEE7FEE7FEE769
:1001A000FEE7FEE7FEE7FEE704480549054A064B81
:1001B0007047000051020000C1000000983000208C
:1001C00098400020983C0020983C002070477047E1
:1001D0007047754600F02CF8AE4605006946534658
:1001E00020F00700854618B020B5FFF7DDFFBDE819
:1001F00020404FF000064FF000074FF000084FF08E
:10020000000B21F00701AC46ACE8C009ACE8C0091E
:10021000ACE8C009ACE8C0098D46704710B504468B
:10022000AFF300802046BDE81040FFF790BF00000C
:10023000004870473830002001491820ABBEFEE767
:1002400026000200704710B500F07CF910BD0000D8
:1002500003480449086004480449086070470000E6
:100260000000000008ED00E0001BB7003400002093
:1002700010B5124B4FF011321149124800F06CF8D2
:10028000114B4FF022321149114800F0A9F80D48E6
:10029000104908600E484860084600680E4908602A
:1002A0000E4B00220E490F4800F056F80D480E493B
:1002B000086000F0D9F8002010BD000038100020C0
:1002C000790500001400002038200020A10500005E
:1002D0001C0000200C00002004000020383000200A
:1002E000C1050000240000200800002030B50246AF
:1002F0001148006850434FF47A71B0FBF1F0401E92
:100300004FF0E021486148170721002804DB4B0724
:100310001C0E0A4B1C5406E04B071D0E084B00F048
:100320000F04241F1D5500BF00204FF0E0218861FD
:100330000720086130BD00003400002000E400E028
:1003400018ED00E010B5044602480068446000F073
:1003500099F810BD0000002030B54FF080751C1FCB
:10036000234625601C1F2346216014251C1F23469D
:10037000256012251C1F2346256003251C1F2346CC
:10038000256002251C1F2346256001251C1F2346CE
:1003900025601C1F2346226011251C1F2346256053
:1003A00010251C1F2346256009251C1F2346256098
:1003B00008251C1F2346256007251C1F2346256092
:1003C00006251C1F2346256005251C1F2346256086
:1003D00004251C1F2346256003600024446030BDB3
:1003E00030B54FF080751C1F234625601C1F234627
:1003F000216016251C1F2346256014251C1F23463B
:10040000256005251C1F2346256004251C1F234647
:10041000256003251C1F234625601C1F23462260E0
:1004200013251C1F2346256012251C1F234625600B
:100430000B251C1F234625600A251C1F234625600B
:1004400009251C1F2346256008251C1F23462560FF
:1004500007251C1F2346256006251C1F23462560F3
:1004600003600024446030BD002080F3098800BF91
:10047000FF2003490870C80601491E39086070470B
:1004800022ED00E010B52748006827490968884236
:1004900011D126480068406820B9244800682449E2
:1004A00008603AE02148406820B920484068204967
:1004B000086032E010BD1D4800681A49096888428A
:1004C00012D11A484068406820B918484068184955
:1004D000086022E013480068406820B112480068B4
:1004E0001349086019E0E5E7104840680D490968BC
:1004F000884212D10D480068406820B90B48006856
:100500000B49086009E007480068406820B10648C8
:1005100000680749086000E0CCE700F00BF800BF76
:10052000C8E7000000000020080000200C000020A8
:10053000040000204FF0805001490860704700001F
:1005400004ED00E010B500200EE00A4951F820103B
:10055000496841B1074951F820104968491E054AC8
:1005600052F820205160401C0228EEDBFFF78AFF82
:1005700010BD00000C0000200A20FFF7B7FE0BE0C2
:100580000120064908600A20FFF7DCFE002003492D
:1005900008600A20FFF7D6FEF2E700002C000020DA
:1005A0000BE00120054908600A20FFF7CBFE002080
:1005B000024908600A20FFF7C5FEF2E7300000207C
:1005C00000BFFEE7E4050000000000203800000046
:1005D000FC0000001C060000380000206040000005
:1005E00018010000000000000000000000000000F2
:1005F00000000000000000000000000000000000FB
:1006000000000000000000000000000000000000EA
:0C0610000000000000000000001BB7000C
:04000005000000C136
:00000001FF
