:020000040000FA
:10000000986300208D010000950100009701000019
:10001000990100009B0100009D010000000000000C
:100020000000000000000000000000009F01000030
:10003000A1010000000000005D0100004702000077
:10004000A7010000A7010000A7010000A701000010
:10005000A7010000A7010000A7010000A701000000
:10006000A7010000A7010000A7010000A7010000F0
:10007000A7010000A7010000A7010000A7010000E0
:10008000A7010000A7010000A7010000A7010000D0
:100090000000000000000000000000000000000060
:1000A0000000000000000000000000000000000050
:1000B000A701000000000000A7010000A701000048
:1000C00000F002F800F03AF80AA090E8000C824430
:1000D0008344AAF10107DA4501D100F02FF8AFF20D
:1000E000090EBAE80F0013F0010F18BFFB1A43F016
:1000F00001031847100B0000300B0000103A24BF1A
:1001000078C878C1FAD8520724BF30C830C144BF7C
:1001100004680C60704700000023002400250026BE
:10012000103A28BF78C1FBD8520728BF30C148BF5A
:100130000B6070471FB51FBD10B510BD00F049F82A
:100140001146FFF7F7FF00F093F800F067F803B4EB
:10015000FFF7F2FF03BC00F06FF80000EFF3098037
:1001600020B120E9F00F07490968086005480649F1
:100170000A6802601068B0E8F00F80F309884EF05A
:10018000040E70470000002004000020094880474A
:1001900009480047FEE7FEE7FEE7FEE7FEE7FEE769
:1001A000FEE7FEE7FEE7FEE704480549054A064B81
:1001B0007047000051020000C10000009853002069
:1001C00098630020985F0020985F00207047704778
:1001D0007047754600F02CF8AE4605006946534658
:1001E00020F00700854618B020B5FFF7DDFFBDE819
:1001F00020404FF000064FF000074FF000084FF08E
:10020000000B21F00701AC46ACE8C009ACE8C0091E
:10021000ACE8C009ACE8C0098D46704710B504468B
:10022000AFF300802046BDE81040FFF790BF00000C
:10023000004870473853002001491820ABBEFEE744
:1002400026000200704710B500F07EFB10BD0000D4
:1002500003480449086004480449086070470000E6
:100260000000000008ED00E0001BB70024000020A3
:1002700008B500F0EFFA00F055FA00F0D9F8094897
:100280001F23002208490090084800F073FA07482D
:100290000749086000F05AFA0649086000F0CCFAF5
:1002A000002008BDFC110020010B0000B40100205B
:1002B000080000200400002001238B4002689A43BC
:1002C0000260704700B50146087818B10878134AF3
:1002D000105C00BD088800F47F4030B10888C0F38E
:1002E00007200E4A105C0830F3E7086800F47F002E
:1002F00030B10868C0F30740084A105C1030E8E7E6
:10030000086800F07F4028B10868000E034A105CBE
:100310001830DEE700F004F8DBE70000040B000013
:100320002020704701238B4002681A430260704707
:1003300070B504460D462570201D00F0D6F870BD3E
:100340002DE9F04104460D46164600F0F3F9074644
:10035000616B081D04F1180100F0CCF80020606307
:10036000A563E663606920F47F006061384600F0B1
:10037000E7F9BDE8F0812DE9F04705460C46164641
:100380001F46DDF8208000F0D5F98146606940EA1B
:10039000074060616563A6630020E063204600F0CB
:1003A000ADFA04F11801281D00F08CF8B8F1000F27
:1003B00003D04146204600F01FFB484600F0C0F93C
:1003C000BDE8F08770B50446002500F0B3F9064695
:1003D000201D00F081F80546304600F0B1F92846AE
:1003E00070BD2DE9F04705460E461746002400F083
:1003F000A1F98146281D00F087F8B0F1000811D05E
:10040000A8F1180400206063A663E763606920F424
:100410007F006061606810B1204600F0FDFA204660
:1004200000F056FA484600F08BF92046BDE8F08708
:1004300008B5124800234FF01132114900901148BD
:1004400000F098F9104801234FF022320F49009034
:100450000F4800F08FF90F4801234FF033320E4957
:1004600000900E4800F086F90D4801234FF0443209
:100470000C4900900C4800F07DF908BD1C230020B9
:10048000350A0000FC1100201C330020810A000006
:10049000441200201C430020C10A00008C120020DE
:1004A0001C530020E10A0000D412002042684A6078
:1004B000426812680A604268116041608268521C9A
:1004C00082607047486002680A600268516001609B
:1004D0008268521C826070470146886870470146F6
:1004E00000208A6802B148687047406000600021BF
:1004F00081607047D1E900231A60D1E900325A6067
:100500008268521E82607047014600208A683AB1B4
:1005100048684268116042684A608A68521E8A6070
:10052000704710B5044605212046FFF701FF002063
:10053000206160612020A06110BD000070B50446FC
:1005400000F0F8F80646206920B9304600F0F8F8C7
:10055000002070BD264960690968884204D0304691
:1005600000F0EEF80520F4E72069401E206120B17C
:10057000304600F0E5F80020EBE71D480068806891
:10058000A169884212D01A480068406950B9606970
:1005900000F0B4F91649A06909688860606900F044
:1005A00097F903E01249A069096888602046FFF7BF
:1005B00009FFB8B1002211462046FFF712FF054699
:1005C0006561A868A0612069401C20610849A8688D
:1005D00009688968884204D2304600F0B1F800F01A
:1005E00055F900BF304600F0ABF80020B1E700003D
:1005F00000000020F8B504460D4600F09BF80646C2
:10060000206970B92069401C20612248006860613F
:10061000204800688068A061304600F091F8002012
:10062000F8BD1C4960690968884207D12069401CEF
:100630002061304600F084F80020F1E7154800689A
:10064000806861698968884213D26069406958B9D5
:10065000606900F053F90F4800688068616988603C
:10066000606900F035F904E00A4800688068616953
:100670008860052300220748009501682046FFF79F
:100680007AFE304600F05CF800F000F9014800689E
:10069000C06BC5E7000000200060406070470000AC
:1006A00030B502461148006850434FF47A71B0FBF0
:1006B000F1F0401E4FF0E021486148170721002863
:1006C00004DB4B071C0E0A4B1C5406E04B071D0EA7
:1006D000084B00F00F04241F1D5500BF00204FF0F1
:1006E000E02188610720086130BD0000240000205F
:1006F00000E400E018ED00E070B5044600F01AF8E0
:10070000054621460648006800F076F9044800686E
:1007100000F0F4F8284600F013F800F0B7F870BDC8
:100720000000002010B50248FFF7DFFE10BD0000FA
:10073000A801002000BFEFF31081084672B6704791
:1007400000BF80F3108800BF7047000070B50748F5
:10075000FFF7B8FD044604EB4401054A02EB8100B3
:10076000FFF7BDFE0546A5F1180070BD0C00002086
:10077000280000202DE9F04105460E461746984610
:10078000069C4FF08071201F04460160201F044624
:1007900006601421201F044601601221201F044618
:1007A00001600321201F044601600221201F04462E
:1007B00001600121201F04460160201F04460760DC
:1007C0001121201F044601601021201F04460160F2
:1007D0000921201F044601600821201F04460160F2
:1007E0000721201F044601600621201F04460160E6
:1007F0000521201F044601600421201F04460160DA
:100800002C6000206860C5F8088068610A202862B2
:1008100000206862A862E86285F8300005F10C00EB
:10082000FFF73AFF05F11800FFF736FF284600F002
:100830004FF8BDE8F0810000002080F3098800BF78
:10084000FF2003490870C80601491E390860704737
:1008500022ED00E070B5FFF76DFF05460020094965
:100860000870002407E004EB4401074A02EB810012
:10087000FFF73BFE641C202CF5DB2846FFF760FFEA
:1008800070BD0000100000202800002070B5FFF7A8
:1008900051FF05460B480078002803DD2846FFF786
:1008A0004FFF70BDFFF752FF0446074800688442BF
:1008B00003D00648046000F03FF82846FFF740FFE9
:1008C00000BFEEE710000020000000200400002020
:1008D00010B50446A16801EB4101064A02EB810014
:1008E00004F11801FFF7E2FD0348A168FFF71AFDC4
:1008F00010BD0000280000200C00002010B50446A8
:10090000A16801EB41010A4A02EB810004F11801E0
:10091000FFF7F0FDA16801EB4101054A02EB810000
:10092000FFF7DAFD18B90348A168FFF7C5FC10BD51
:10093000280000200C0000204FF080500149086082
:100940007047000004ED00E070B5FFF7F3FE0646C7
:100950002648456813E0A5F10C046068401E6060FD
:1009600060B9606B20B1012200212046FFF7E8FC4E
:10097000204600F051F82046FFF7AAFF6D681B489B
:100980008542E8D11A480068006A401E1849096883
:10099000086228BB16490968896801EB4101154ABC
:1009A00002EB8100FFF798FDD0B111490968896811
:1009B00001EB41010F4A02EB8100FFF7A5FD0C4955
:1009C0000968896801EB41010A4A02EB8100084984
:1009D00009681831FFF776FD0A20054909680862A1
:1009E0003046FFF7ADFEFFF751FF70BDA8010020B4
:1009F000000000202800002070B504460D46656008
:100A000004F10C010348FFF75DFD606940F004004C
:100A1000606170BDA801002010B5044604F10C010E
:100A20000348FFF767FD606920F00400606110BDB6
:100A3000A80100200A20FFF733FE0F48FFF771FDE1
:100A400000BF00210C48FFF7D5FD00210A48FFF741
:100A5000D1FD0020094908600120FFF74DFE01206B
:100A600006490860FFF748FE0348FFF767FD0248A4
:100A7000FFF764FDE5E700001C5300201400002090
:100A800000BF00210C48FFF7B5FD00210A48FFF721
:100A9000B1FD0020094908600120FFF72DFE01206B
:100AA00006490860FFF728FE0348FFF747FD0248A4
:100AB000FFF744FDE5E700001C530020180000206C
:100AC00000BF0020054908600120FFF715FE012046
:100AD00002490860FFF710FEF3E700001C00002049
:100AE00000BF0020054908600120FFF705FE012036
:100AF00002490860FFF700FEF3E700002000002035
:100B000000BFFEE7FF00010002000100030001003A
:100B100002000100040001000200010003000100C6
:100B200002000100050001000200010003000100B5
:100B300002000100040001000200010003000100A6
:100B40000200010006000100020001000300010094
:100B50000200010004000100020001000300010086
:100B60000200010005000100020001000300010075
:100B70000200010004000100020001000300010066
:100B80000200010007000100020001000300010053
:100B90000200010004000100020001000300010046
:100BA0000200010005000100020001000300010035
:100BB0000200010004000100020001000300010026
:100BC0000200010006000100020001000300010014
:100BD0000200010004000100020001000300010006
:100BE00002000100050001000200010003000100F5
:100BF00002000100040001000200010003000100E6
:100C000002000100240C0000000000202800000069
:100C1000FC0000004C0C0000280000207063000065
:100C200018010000000000000000000000000000AB
:100C300000000000000000000000000000000000B4
:0C0C40000000000000000000001BB700D6
:04000005000000C136
:00000001FF
