:020000040000FA
:10000000A86300208D010000950100009701000009
:10001000990100009B0100009D010000000000000C
:100020000000000000000000000000009F01000030
:10003000A1010000000000005D010000930200002B
:10004000A7010000A7010000A7010000A701000010
:10005000A7010000A7010000A7010000A701000000
:10006000A7010000A7010000A7010000A7010000F0
:10007000A7010000A7010000A7010000A7010000E0
:10008000A7010000A7010000A7010000A7010000D0
:100090000000000000000000000000000000000060
:1000A0000000000000000000000000000000000050
:1000B000A701000000000000A7010000A701000048
:1000C00000F002F800F03AF80AA090E8000C824430
:1000D0008344AAF10107DA4501D100F02FF8AFF20D
:1000E000090EBAE80F0013F0010F18BFFB1A43F016
:1000F000010318471009000030090000103A24BF1E
:1001000078C878C1FAD8520724BF30C830C144BF7C
:1001100004680C60704700000023002400250026BE
:10012000103A28BF78C1FBD8520728BF30C148BF5A
:100130000B6070471FB51FBD10B510BD00F070F803
:100140001146FFF7F7FF00F0C1F800F08EF803B496
:10015000FFF7F2FF03BC00F095F80000EFF3098011
:1001600020B120E9F00F07490968086005480649F1
:100170000A6802601068B0E8F00F80F309884EF05A
:10018000040E70470000002004000020094880474A
:1001900009480047FEE7FEE7FEE7FEE7FEE7FEE769
:1001A000FEE7FEE7FEE7FEE704480549054A064B81
:1001B000704700009D020000C1000000A85300200D
:1001C000A8630020A85F0020A85F00204FF0000275
:1001D00000B5134694469646203922BFA0E80C503D
:1001E000A0E80C50B1F12001BFF4F7AF090728BF18
:1001F000A0E80C5048BF0CC05DF804EB890028BF94
:1002000040F8042B08BF704748BF20F8022B11F0BC
:10021000804F18BF00F8012B704770477047704738
:10022000754600F02BF8AE4605006946534620F0AF
:100230000700854618B020B5FFF7B6FFBDE820409F
:100240004FF000064FF000074FF000084FF0000B92
:1002500021F00701AC46ACE8C009ACE8C009ACE845
:10026000C009ACE8C0098D46704710B50446AFF32D
:1002700000802046BDE81040FFF769BF0048704786
:100280004453002001491820ABBEFEE726000200BF
:10029000704710B500F080FA10BD00000348044913
:1002A000086004480449086070470000000000002E
:1002B00008ED00E0001BB7002400002000F080F8EB
:1002C0000A2000F005F900BFFEE700001CB500F0B1
:1002D00007FA00F03FF94FF4806008491F2300221D
:1002E000CDE900100649074800F05CF900F046F936
:1002F0000549086000F0C4F900201CBD040200207C
:10030000BD020000B40100200400002001238B4046
:1003100002689A430260704700B50146087818B138
:100320000878134A105C00BD088800F47F4030B1A3
:100330000888C0F307200E4A105C0830F3E708680D
:1003400000F47F0030B10868C0F30740084A105C31
:100350001030E8E7086800F07F4028B10868000E18
:10036000034A105C1830DEE700F007F8DBE7000016
:10037000040900000021016070472020704701231C
:100380008B4002681A43026070472DE9F041044631
:100390000D46164600F0E6F80746E16B081D04F12D
:1003A000200100F07BF80020E06325646664E069CA
:1003B00020F47F00E061384600F0DAF8BDE8F08113
:1003C0001CB54FF48050174900234FF01132CDE98E
:1003D00000101549154800F0E5F84FF48050144915
:1003E00001234FF02232CDE900101249124800F0EB
:1003F000D9F84FF48050114901234FF03332CDE941
:1004000000100F490F4800F0CDF84FF480500E490E
:1004100001234FF04432CDE900100C490C4800F0A4
:10042000C1F81CBD44130020850800000412002000
:1004300044230020A508000054120020443300206B
:10044000C5080000A412002044430020E508000075
:10045000F412002042684A60426812680A604268EA
:10046000116041608268521C826070474860026877
:100470000A600268516001608268521C82607047A5
:10048000014688687047014600208A6802B14868C2
:10049000704740600060002181607047D1E900230F
:1004A0001A60D1E900325A608268521E8260704739
:1004B000014600208A683AB1486842681160426883
:1004C0004A608A68521E8A607047006040607047C8
:1004D00030B502461148006850434FF47A71B0FBC2
:1004E000F1F0401E4FF0E021486148170721002835
:1004F00004DB4B071C0E0A4B1C5406E04B071D0E79
:10050000084B00F00F04241F1D5500BF00204FF0C2
:10051000E02188610720086130BD00002400002030
:1005200000E400E018ED00E070B5044600F01AF8B1
:10053000054621460648006800F086F90448006830
:1005400000F004F9284600F013F800F0A7F870BD99
:100550000000002010B50248FFF79BFF10BD00000F
:10056000A801002000BFEFF31081084672B6704763
:1005700000BF80F3108800BF7047000070B50748C7
:10058000FFF7CAFE044604EB4401054A02EB810072
:10059000FFF779FF0546A5F1200070BD0C00002093
:1005A000280000202DE9F0470546884691469A46E6
:1005B000DDE908676E60AF6039463046FFF706FE3A
:1005C000B80806EB80044FF08071201F04460160DC
:1005D000201F0446C0F800801421201F044601603B
:1005E0001221201F044601600321201F04460160E0
:1005F0000221201F044601600121201F04460160E2
:10060000201F0446C0F800901121201F04460160FD
:100610001021201F044601600921201F04460160AB
:100620000821201F044601600721201F04460160A5
:100630000621201F044601600521201F0446016099
:100640000421201F044601602C600020E860C5F8EA
:1006500010A0E8610A20A8620020E86228636863AD
:1006600085F8380005F11400FFF72FFF05F1200091
:10067000FFF72BFF284600F053F8BDE8F087000095
:10068000002080F3098800BFFF2003490870C806D6
:1006900001491E390860704722ED00E070B5FFF790
:1006A00061FF05460B480078002803DD2846FFF768
:1006B0005FFF70BDFFF762FF044607480068844291
:1006C00003D00648046000F05FF82846FFF750FFAB
:1006D00000BFEEE710000020000000200400002012
:1006E00070B5FFF73FFF054600200A4908700A4829
:1006F000FFF740FE002407E004EB4401074A02EB49
:100700008100FFF7C6FE641C202CF5DB2846FFF7AE
:100710002FFF70BD100000200C00002028000020DA
:1007200010B50446216901EB4101064A02EB810044
:1007300004F12001FFF78EFE03482169FFF71FFE39
:1007400010BD0000280000200C00002010B5044659
:10075000216901EB41010A4A02EB810004F1200109
:10076000FFF79CFE216901EB4101054A02EB810084
:10077000FFF786FE18B903482169FFF7C7FD10BDD2
:10078000280000200C0000204FF080500149086034
:100790007047000004ED00E070B5FFF7E3FE064689
:1007A0002648456813E0A5F11404E068401EE060A7
:1007B00060B9E06B20B1012200212046FFF7E5FD82
:1007C000204600F051F82046FFF7AAFF6D681B484D
:1007D0008542E8D11A480068806A401E18490968B5
:1007E000886228BB16490968096901EB4101154A6D
:1007F00002EB8100FFF744FED0B111490968096995
:1008000001EB41010F4A02EB8100FFF751FE0C4959
:100810000968096901EB41010A4A02EB81000849B4
:1008200009682031FFF722FE0A200549096888621D
:100830003046FFF79DFEFFF731FF70BDA801002095
:10084000000000202800002070B504460D46E56039
:1008500004F114010348FFF709FEE06940F00400C9
:10086000E06170BDA801002010B5044604F1140138
:100870000348FFF713FEE06920F00400E06110BDBB
:10088000A801002000BF012005490860FFF74CFEC9
:100890000020034908600120FFF746FEF3E700004F
:1008A0001400002000BF012005490860FFF73CFE4E
:1008B0000020034908600120FFF736FEF3E700003F
:1008C0001800002000BF012005490860FFF72CFE3A
:1008D0000020034908600120FFF726FEF3E700002F
:1008E0001C00002000BF012005490860FFF71CFE26
:1008F0000020034908600120FFF716FEF3E700001F
:1009000020000020FF0001000200010003000100A0
:1009100002000100040001000200010003000100C8
:1009200002000100050001000200010003000100B7
:1009300002000100040001000200010003000100A8
:100940000200010006000100020001000300010096
:100950000200010004000100020001000300010088
:100960000200010005000100020001000300010077
:100970000200010004000100020001000300010068
:100980000200010007000100020001000300010055
:100990000200010004000100020001000300010048
:1009A0000200010005000100020001000300010037
:1009B0000200010004000100020001000300010028
:1009C0000200010006000100020001000300010016
:1009D0000200010004000100020001000300010008
:1009E00002000100050001000200010003000100F7
:1009F00002000100040001000200010003000100E8
:100A000002000100240A000000000020280000006D
:100A1000FC0000004C0A0000280000208063000059
:100A200018010000000000000000000000000000AD
:100A300000000000000000000000000000000000B6
:0C0A40000000000000000000001BB700D8
:04000005000000C136
:00000001FF
