:020000040000FA
:10000000784000205D0100006501000067010000EC
:10001000690100006B0100006D010000000000009C
:100020000000000000000000000000006F01000060
:100030007101000000000000730100007501000064
:1000400077010000770100007701000077010000D0
:1000500077010000770100007701000077010000C0
:1000600077010000770100007701000077010000B0
:1000700077010000770100007701000077010000A0
:100080007701000077010000770100007701000090
:100090000000000000000000000000000000000060
:1000A0000000000000000000000000000000000050
:1000B00077010000000000007701000077010000D8
:1000C00000F002F800F03AF80AA090E8000C824430
:1000D0008344AAF10107DA4501D100F02FF8AFF20D
:1000E000090EBAE80F0013F0010F18BFFB1A43F016
:1000F00001031847DC010000FC010000103A24BF96
:1001000078C878C1FAD8520724BF30C830C144BF7C
:1001100004680C60704700000023002400250026BE
:10012000103A28BF78C1FBD8520728BF30C148BF5A
:100130000B6070471FB51FBD10B510BD00F031F842
:100140001146FFF7F7FF00F07BF800F04FF803B41B
:10015000FFF7F2FF03BC00F057F8000009488047A2
:1001600009480047FEE7FEE7FEE7FEE7FEE7FEE799
:10017000FEE7FEE7FEE7FEE704480549054A064BB1
:100180007047000021020000C1000000783000200C
:1001900078400020783C0020783C00207047704771
:1001A0007047754600F02CF8AE4605006946534688
:1001B00020F00700854618B020B5FFF7DDFFBDE849
:1001C00020404FF000064FF000074FF000084FF0BE
:1001D000000B21F00701AC46ACE8C009ACE8C0094F
:1001E000ACE8C009ACE8C0098D46704710B50446BC
:1001F000AFF300802046BDE81040FFF7A8BF000025
:10020000004870471830002001491820ABBEFEE7B7
:1002100026000200704700BF411E081EFCDC70472C
:100220000348044908600448044908607047000016
:100230000000000008ED00E040787D01140000207F
:10024000114812490860084611490860114B4FF0E7
:1002500011321149114800F02BF8114B4FF02232A6
:100260001049114800F024F800BF00200F49086031
:10027000C820FFF7D0FF01200C490860C820FFF715
:10028000CAFF00F01BF8F0E7181000201000002053
:100290000000002018200020B50200000800002007
:1002A00018300020B90200000C00002004000020DB
:1002B0000360704700BFFEE700BFFEE7FF20034971
:1002C0000870C80601491E390860704722ED00E039
:1002D000F00200000000002018000000FC000000F8
:1002E0000803000018000020604000001801000012
:1002F00000000000000000000000000000000000FE
:080300000000000040787D01BF
:04000005000000C136
:00000001FF
