:020000040000FA
:10000000A84100208D01000095010000970100002B
:10001000990100009B0100009D010000000000000C
:100020000000000000000000000000009F01000030
:10003000A1010000000000005D0100004702000077
:10004000A7010000A7010000A7010000A701000010
:10005000A7010000A7010000A7010000A701000000
:10006000A7010000A7010000A7010000A7010000F0
:10007000A7010000A7010000A7010000A7010000E0
:10008000A7010000A7010000A7010000A7010000D0
:100090000000000000000000000000000000000060
:1000A0000000000000000000000000000000000050
:1000B000A701000000000000A7010000A701000048
:1000C00000F002F800F03AF80AA090E8000C824430
:1000D0008344AAF10107DA4501D100F02FF8AFF20D
:1000E000090EBAE80F0013F0010F18BFFB1A43F016
:1000F00001031847C0060000E0060000103A24BFC4
:1001000078C878C1FAD8520724BF30C830C144BF7C
:1001100004680C60704700000023002400250026BE
:10012000103A28BF78C1FBD8520728BF30C148BF5A
:100130000B6070471FB51FBD10B510BD00F049F82A
:100140001146FFF7F7FF00F093F800F067F803B4EB
:10015000FFF7F2FF03BC00F06FF80000EFF3098037
:1001600020B120E9F00F07490968086005480649F1
:100170000A6802601068B0E8F00F80F309884EF05A
:10018000040E70470000002004000020094880474A
:1001900009480047FEE7FEE7FEE7FEE7FEE7FEE769
:1001A000FEE7FEE7FEE7FEE704480549054A064B81
:1001B0007047000051020000C1000000A83100207B
:1001C000A8410020A83D0020A83D002070477047AE
:1001D0007047754600F02CF8AE4605006946534658
:1001E00020F00700854618B020B5FFF7DDFFBDE819
:1001F00020404FF000064FF000074FF000084FF08E
:10020000000B21F00701AC46ACE8C009ACE8C0091E
:10021000ACE8C009ACE8C0098D46704710B504468B
:10022000AFF300802046BDE81040FFF790BF00000C
:10023000004870474831002001491820ABBEFEE756
:1002400026000200704710B500F0D2F910BD000082
:1002500003480449086004480449086070470000E6
:100260000000000008ED00E0001BB70024000020A3
:1002700008B500F065F900F0D5F8124800234FF0FA
:10028000113211490090114800F0EEF81048012396
:100290004FF022320F4900900F4800F0E5F80F4868
:1002A0001F2300220E4900900E4800F0DDF80D4893
:1002B0000D49086000F0CAF80C49086000F032F9F6
:1002C000002008BDE41000206D060000B4000020EE
:1002D000E420002091060000CC000020FC3000202B
:1002E000B1060000E42000200800002004000020E7
:1002F00001238B4002689A430260704700B50146B3
:10030000087818B10878134A105C00BD088800F41A
:100310007F4030B10888C0F307200E4A105C0830D7
:10032000F3E7086800F47F0030B10868C0F30740C5
:10033000084A105C1030E8E7086800F07F4028B1F8
:100340000868000E034A105C1830DEE700F004F87D
:10035000DBE70000B40600002020704701238B403B
:1003600002681A4302607047486002680A600268C7
:10037000516001608268521C82607047406000607A
:10038000002181607047D1E900231A60D1E9003271
:100390005A608268521E82607047006040607047F9
:1003A00030B502461148006850434FF47A71B0FBF3
:1003B000F1F0401E4FF0E021486148170721002866
:1003C00004DB4B071C0E0A4B1C5406E04B071D0EAA
:1003D000084B00F00F04241F1D5500BF00204FF0F4
:1003E000E02188610720086130BD00002400002062
:1003F00000E400E018ED00E070B5044600F01AF8E3
:10040000054621460648006800F012F904480068D5
:1004100000F0D6F8284600F013F800F09FF870BD01
:100420000000002010B50248FFF7A8FF10BD000033
:10043000A800002000BFEFF31081084672B6704795
:1004400000BF80F3108800BF7047000010B504485B
:10045000FFF754FF0446034850F8240010BD000085
:100460000C000020280000202DE9F04105460F4631
:1004700090461E46069C4FF08071201F0446016086
:10048000201F044607601421201F0446016012212A
:10049000201F044601600321201F04460160022141
:1004A000201F044601600121201F04460160201F17
:1004B0000446C0F800801121201F0446016010216D
:1004C000201F044601600921201F04460160082105
:1004D000201F044601600721201F044601600621F9
:1004E000201F044601600521201F044601600421ED
:1004F000201F044601602C6000206860AE606861C7
:1005000005F10C00FFF749FF044840F8265031463A
:100510000348FFF723FFBDE8F0810000280000201A
:100520000C000020002080F3098800BFFF20034951
:100530000870C80601491E390860704722ED00E0C6
:1005400010B5FFF777FF04460020034908702046E6
:10055000FFF776FF10BD00001000002070B5FFF718
:1005600069FF05460B480078002803DD2846FFF7A1
:1005700067FF70BDFFF76AFF0446074800688442C2
:1005800003D00648046000F02BF82846FFF758FF18
:1005900000BFEEE710000020000000200400002053
:1005A00010B504460449A06841F820400348A168FA
:1005B000FFF7D4FE10BD0000280000200C00002032
:1005C00010B504460020044AA16842F821000348FF
:1005D000A168FFF78DFE10BD280000200C00002050
:1005E0004FF08050014908607047000004ED00E0C2
:1005F00070B5FFF71FFF06460C4844680CE0A4F1F5
:100600000C056868401E686028B9284600F020F88C
:100610002846FFF7C5FF646804488442EFD130469E
:10062000FFF70EFFFFF79AFF70BD0000A800002043
:1006300070B504460D46656004F10C010348FFF7F0
:1006400093FE606940F00200606170BDA800002068
:1006500010B5044604F10C010348FFF794FE6069ED
:1006600020F00200606110BDA80000200A20FFF702
:1006700097FE0AE0012005490860FFF7BDFE002053
:10068000024908600120FFF7B7FEF3E718000020D9
:100690000AE0012005490860FFF7AEFE002003498B
:1006A00008600120FFF7A8FEF3E70000200000200B
:1006B00000BFFEE7FF00010002000100030001008F
:1006C000020001000400010002000100030001001B
:1006D000020001000500010002000100030001000A
:1006E00002000100040001000200010003000100FB
:1006F00002000100060001000200010003000100E9
:1007000002000100040001000200010003000100DA
:1007100002000100050001000200010003000100C9
:1007200002000100040001000200010003000100BA
:1007300002000100070001000200010003000100A7
:10074000020001000400010002000100030001009A
:100750000200010005000100020001000300010089
:10076000020001000400010002000100030001007A
:100770000200010006000100020001000300010068
:10078000020001000400010002000100030001005A
:100790000200010005000100020001000300010049
:1007A000020001000400010002000100030001003A
:1007B00002000100D4070000000000202800000013
:1007C000FC000000FC070000280000208041000021
:1007D0001801000000000000000000000000000000
:1007E0000000000000000000000000000000000009
:0C07F0000000000000000000001BB7002B
:04000005000000C136
:00000001FF
